:100000000C942A000C9447000C9447000C94470071
:100010000C9447000C9447000C9447000C94660D18
:100020000C9447000C9447000C9447000C94470034
:100040000C9447000C9447000C9447000C94470014
:100050000C94470011241FBECFE5D8E0DEBFCDBF12
:1000600011E0A0E6B0E0E4EAFBE302C005900D92E7
:10007000A23BB107D9F717E0A2EBB1E001C01D9296
:10008000A937B107E1F70E94761C0C94D01D0C949F
:100090000000EF92FF920F931F937B018C0120E0F1
:1000A00030E040E05FE40E94C50388238CF0C80183
:1000B000B70120E030E040E05FE40E94C1010E940F
:1000C00053049B01AC01205030404040504806C0D2
:1000D000C801B7010E9453049B01AC01B901CA01D8
:1000E0001F910F91FF90EF900895A0E0B0E0EBE733
:1000F000F0E00C944B1DDC012B01FA019C91923035
:1001000008F439C1EB018881823008F433C194309E
:1001100069F4843009F02FC111969C91119789815F
:10012000981709F428C1A8EAB0E025C1843009F481
:1001300021C18230A9F4923009F01DC19A01AD01AC
:1001400088E0EA010990AE01E90109929E0181501F
:10015000C1F7E201898111969C918923818308C1AD
:10016000923009F407C112962D903C901397EB0141
:100170008A819B811496AD90BD90CD90DC901797AD
:10018000EC80FD800E811F819101281B390BB90184
:1001900037FF04C066277727621B730B6032710537
:1001A0000CF061C0121613066CF537014801062EDB
:1001B00004C096948794779467940A94D2F721E0C8
:1001C00030E040E050E004C0220F331F441F551FB1
:1001D0006A95D2F721503040404050402E213F21B7
:1001E00040235123211531054105510521F021E01E
:1001F00030E040E050E079018A01E628F72808293C
:1002000019293CC0232BD1F1260E371E350146019A
:10021000062E04C096948794779467940A94D2F734
:1002200021E030E040E050E004C0220F331F441FC3
:10023000551F6A95D2F721503040404050402A2146
:100240003B214C215D21211531054105510521F04E
:1002500021E030E040E050E059016A01A628B728CB
:10026000C828D9280BC0821593052CF01C01AA249C
:10027000BB24650103C0EE24FF24870111969C91E5
:10028000D20111968C91981709F445C0992339F041
:10029000A80197012A193B094C095D0906C0A6016E
:1002A00095012E193F09400B510B57FD08C01182D3
:1002B0003382228224833583468357831DC081E0A5
:1002C00081833382228288279927DC01821B930B4A
:1002D000A40BB50B84839583A683B7830DC0220F2F
:1002E000331F441F551F24833583468357838281E0
:1002F000938101979383828324813581468157813D
:10030000DA01C9010197A109B1098F5F9F4FAF4F72
:10031000BF4328F30BC0918333822282EA0CFB1C7B
:100320000C1D1D1DE482F5820683178383E0808304
:10033000248135814681578157FF1AC0C901AA27F8
:1003400097FDA095BA2F81709070A070B0705695EF
:10035000479537952795822B932BA42BB52B848318
:100360009583A683B7838281938101969383828349
:10037000DF0101C0D201CD01CDB7DEB7E2E10C94BF

:100390007A838B839C832D833E834F835887E9E048
:1003A000EE2EF12CEC0EFD1ECE010196B7010E943F
:1003B00044068E010F5E1F4FCE010596B8010E94C4
:1003C00044068A8991E089278A8BC701B801AE016A
:1003D000475E5F4F0E9475000E946F05A096E6E0A1

:1003F00069837A838B839C832D833E834F835887C5
:10040000F9E0EF2EF12CEC0EFD1ECE010196B701A6
:100410000E9444068E010F5E1F4FCE010596B80163
:100420000E944406C701B801AE01475E5F4F0E94BB

:100450009C832D833E834F835887CE010196BE0136
:10046000675F7F4F0E944406CE010596BE016F5E16
:100470007F4F0E9444069985923088F089898230A6
:10048000C8F0943019F4823051F404C0843029F457

:1004A0009A858A89981321E02A87CE010996BBC0D4
:1004B000823049F420E09A858A89981321E02A8BBA
:1004C000CE014196B0C02D843E844F8458886D88FB
:1004D0007E888F88988CEE24FF248701AA24BB2471
:1004E000650140E050E060E070E0E0E0F0E0C10174
:1004F00081709070892BE9F0E60CF71C081D191D1E
:100500009A01AB012A0D3B1D4C1D5D1D80E090E062
:10051000A0E0B0E0E614F7040805190520F481E036
:1005200090E0A0E0B0E0BA01A901480F591F6A1F8E
:100530007B1FAA0CBB1CCC1CDD1C97FE08C081E0F5
:1005400090E0A0E0B0E0A82AB92ACA2ADB2A3196B6
:10055000E032F10549F0660C771C881C991C569412
:10056000479437942794C3CFFA85EA892B893C892D
:100570008B859C85280F391F2E5F3F4F17C0CA01FE
:1005800081709070892B61F016950795F794E79428
:1005900080E090E0A0E0B0E8E82AF92A0A2B1B2BC3
:1005A00076956795579547952F5F3F4F77FDE7CF36
:1005B0000CC0440F551F661F771F17FD4160EE0CDE
:1005C000FF1C001F111F21503040403090E05907A0
:1005D00090E0690790E4790760F32B8F3C8FDB0193
:1005E000CA018F779070A070B07080349105A1051A
:1005F000B10561F447FD0AC0E114F10401051105DC
:1006000029F0405C5F4F6F4F7F4F40781A8EFE1786
:1006100011F081E08A8F4D8F5E8F6F8F78A383E01A
:10062000898FCE0149960E946F05A096E2E10C9455

:100640007A838B839C832D833E834F835887B9E0C5
:10065000EB2EF12CEC0EFD1ECE010196B7010E948F
:1006600044068E010F5E1F4FCE010596B8010E9411
:1006700044062985223008F47EC03989323010F4CE
:10068000B8017CC08A859A8989278A87243011F02D

:1006A000343039F41D861E861F86188A1C861B86E8
:1006B00004C0323021F484E08987B7015FC02B8504
:1006C0003C858B899C89281B390B3C872B87ED84C3
:1006D000FE840F851889AD88BE88CF88D88CEA142F
:1006E000FB040C051D0540F4EE0CFF1C001F111F40
:1006F000215030403C872B8720E030E040E050E044
:1007000080E090E0A0E0B0E460E070E0EA14FB0478
:100710000C051D0540F0282B392B4A2B5B2BEA18C2
:10072000FB080C091D09B695A79597958795EE0CC2
:10073000FF1C001F111F6F5F7F4F6F31710531F775
:10074000DA01C9018F779070A070B0708034910584
:10075000A105B10561F427FD0AC0E114F10401050A
:10076000110529F0205C3F4F4F4F5F4F20782D87B8
:100770003E874F87588BBE01675F7F4FCB010E943A

:1007A0003E834F83588789E0E82EF12CEC0EFD1E26
:1007B000CE010196B7010E9444068E010F5E1F4FC5
:1007C000CE010596B8010E9444068985823040F02A
:1007D0008989823028F0C701B8010E94BC0601C097

:10080000C9018827B7FD83959927AA27BB27B82E4A
:10081000211531054105510519F482E089833AC05B
:100820008823A9F0203080E0380780E0480780E87E
:10083000580729F460E070E080E09FEC30C0EE24BF
:10084000FF248701E21AF30A040B150B02C0790199
:100850008A018EE1C82ED12CDC82CB82ED82FE8211
:100860000F831887C801B7010E9420050197181649
:10087000190684F4082E04C0EE0CFF1C001F111F83
:100880000A94D2F7ED82FE820F831887C81AD90A1C
:10089000DC82CB82BA82CE0101960E946F05289637

:1008C0006B5F7F4F0E9444068D81823061F18230E0
:1008D00050F1843021F48E81882351F12EC02F8174
:1008E000388537FD20C06E812F3131051CF066231D
:1008F000F9F023C08EE190E0821B930B29853A85A5
:100900004B855C8504C056954795379527958A9504
:10091000D2F76623B1F050954095309521953F4F21
:100920004F4F5F4F0EC020E030E040E050E009C084
:100930002FEF3FEF4FEF5FE704C020E030E040E0F3

:1009600071058105910519F482E0898360C083E0F7
:1009700089838EE1C82ED12CDC82CB82ED82FE826F
:100980000F831887C801B7010E942005FC01319729
:10099000F7FF3BC0222733272E1B3F0B570168016F
:1009A000022E04C0D694C794B794A7940A94D2F7A1
:1009B00040E050E060E070E081E090E0A0E0B0E076
:1009C00004C0880F991FAA1FBB1F2A95D2F7019751
:1009D000A109B1098E219F21A023B1230097A10570
:1009E000B10521F041E050E060E070E04A295B2968
:1009F0006C297D294D835E836F8378878EE190E03B
:100A00008E1B9F0B9C838B8312C0309781F00E2E20
:100A100004C0EE0CFF1C001F111F0A94D2F7ED82D8
:100A2000FE820F831887CE1ADF0ADC82CB821A82FD

:100A4000EF92FF920F931F937B018C0180E0E816D9
:100A500080E0F80681E0080780E0180788F48FEF4F
:100A6000E816F1040105110531F028F088E090E066
:100A7000A0E0B0E017C080E090E0A0E0B0E012C0DD
:100A800080E0E81680E0F80680E0080781E01807BB
:100A900028F088E190E0A0E0B0E004C080E190E0C0
:100AA000A0E0B0E020E230E040E050E0281B390B4D
:100AB0004A0B5B0B04C016950795F794E7948A954B

:100AD0005109C9011F910F91FF90EF900895DF9286
:100AE000EF92FF920F931F93FC01E480F580068143
:100AF0001781D1808081823048F480E090E0A0E1CD
:100B0000B0E0E82AF92A0A2B1B2BA5C0843009F48F
:100B10009FC0823021F4EE24FF24870105C0E11438
:100B2000F1040105110519F4E0E0F0E096C06281DE
:100B300073819FEF623879070CF05BC022E83FEFCA
:100B4000261B370B2A3131052CF020E030E040E045
:100B500050E02AC0B801A701022E04C0769567951F
:100B6000579547950A94D2F781E090E0A0E0B0E075
:100B700004C0880F991FAA1FBB1F2A95D2F701979F
:100B8000A109B1098E219F21A023B1230097A105BE
:100B9000B10521F081E090E0A0E0B0E09A01AB0166
:100BA000282B392B4A2B5B2BDA01C9018F779070E8
:100BB000A070B07080349105A105B10539F427FF0C
:100BC00009C0205C3F4F4F4F5F4F04C0215C3F4F37
:100BD0004F4F5F4FE0E0F0E02030A0E03A07A0E0A8
:100BE0004A07A0E45A0710F0E1E0F0E079018A0139
:100BF00027C06038710564F5FB01E158FF4FD8014B
:100C0000C7018F779070A070B07080349105A105F6
:100C1000B10539F4E7FE0DC080E490E0A0E0B0E05B
:100C200004C08FE390E0A0E0B0E0E80EF91E0A1FD8
:100C30001B1F17FF05C016950795F794E79431968B
:100C400087E016950795F794E7948A95D1F705C044
:100C5000EE24FF248701EFEFF0E06E2F6795662703
:100C60006795902F9F77D794DD24D7948E2F869504
:100C7000492F462B582F5D29B701CA011F910F91AB
:100C8000FF90EF90DF900895FC01DB0140815181DE
:100C90002281622F6F7770E0221F2227221F93810B
:100CA000892F880F822B282F30E0991F9927991FB1
:100CB00011969C93119721153105A9F54115510500
:100CC0006105710511F482E037C082E89FEF139649
:100CD0009C938E9312979A01AB0167E0220F331F0A
:100CE000441F551F6A95D1F783E08C930DC0220FE6
:100CF000331F441F551F12968D919C911397019796
:100D000013969C938E931297203080E0380780E0F2
:100D1000480780E4580758F314962D933D934D935C
:100D20005C93179708952F3F310579F441155105CC
:100D30006105710519F484E08C93089564FF03C084
:100D400081E08C9312C01C9210C02F573040139634
:100D50003C932E93129783E08C9387E0440F551FAA
:100D6000661F771F8A95D1F7706414964D935D9333
:100D70006D937C93179708951F93DC01FB019C9161
:100D8000923008F447C08081823008F443C0943028
:100D900051F411961C91843099F58181682F70E08F
:100DA000611B71093FC0843021F0923031F48230F0
:100DB000B9F18181882389F12DC011961C91119779
:100DC0008230F1F081811817D9F412962D913C915F
:100DD0001397828193818217930794F0281739071C
:100DE000BCF014968D919D910D90BC91A02D248105
:100DF000358146815781281739074A075B0718F460
:100E0000112341F00AC082179307A407B50740F4E5
:100E1000112319F061E070E005C06FEF7FEF02C0B1

:100E5000EF92FF920F931F93182F8AE062E040E019

:100E700081E0982E8AE997E060E670E045E550E071
:100E80009401012FEE24FF24CC24DD24AA24BB24CA
:100E90000E949C168EE597E068E670E045E550E01C
:100EA00094010E949C161F910F91FF90EF90DF908C
:100EB000CF90BF90AF909F908F900895CF92DF9288
:100EC000EF92FF920F931F93DF93CF9300D0CDB794
:100ED000DEB77C011A82198200E010E06E010894EE
:100EE000C11CD11C1FC0F70180819181B60140E077

:100F300010E0D9CF9F92AF92BF92CF92DF92EF9203
:100F4000FF920F931F93DF93CF9300D0CDB7DEB7FF
:100F5000982EC92EEE24FF24DD245E010894A11CE6
:100F6000B11C23C0F80180819181B50140E050E0BF
:100F700020E00E94FA0F8130C1F429813A812E15B8
:100F80003F0519F0DD24D3940CC0DD2051F40FB6D9

:100FA0000FBE79010894E11CF11C092D1C2DF801DC
:100FB000808191810E94C20D8823A1F684EB90E08C
:100FC0000E949D15F2CFEF92FF920F931F93DC01C9
:100FD0001596ED91FC911697E680F7808701045FE6

:101000009C918689981708F021E0822F1F910F91FB
:10101000FF90EF900895FF920F931F93CF93DF936C

:1010300006811781C8010C960E94610C7894E80122

:1010E0009B812817390730F1F8948E010E5F1F4F4E
:1010F000C8010E94610C8C899D89892B21F0CE0149

:10118000FC9112970280F381E02D1296FC93EE936E
:101190001197CD010396E817F90731F48281938105
:1011A00012969C938E9311971196ED91FC91129744

:1011C0003181CF016789F9010995DF91CF911F9195
:1011D0000F91FF9008950F931F93CF93DF93EB012F

:10124000CE010E942F0CDF91CF911F910F91089535
:10125000AF92BF92CF92DF92EF92FF920F931F93C4
:10126000CF93DF936C01B62EA42E8AE190E00E940A

:1012D000EB2CBB2011F0EE24E394198E188EEE8ACD
:1012E000AF8AFE01C192D1928F01CF010E940C0CF6
:1012F000CE010C960E940C0CD987C887DB8BCA8B59
:1013000082E090E08E1991099D878C879E8980915B

:10133000CF911F910F91FF90EF90DF90CF90BF90D2
:10134000AF900895FC010FB6F8940F92208131817F
:101350006095709562237323718360830F900FBE35
:10136000C9010895FC01808191810895BA010E940C
:10137000A2090895CF93DF93EC010E94181206C0D2
:101380008F81988560E072E00E9475138A818823BE
:10139000B9F7CE010E94330B0E942B15DF91CF913C
:1013A0000895CF92DF92EF92FF920F931F93CF9306
:1013B000DF938B01EC0185E0E82EF12CEC0EFD1E95
:1013C0000E941812EF81F88588819981802B912BDA
:1013D0009983888300E010E024C0D280C38080819C
:1013E0009181BC016070AC0150702881398192FDFF
:1013F00005C024233523232B31F40FC024233523A8
:101400002417350751F470FF02C0042B152B688197
:1014100079817260CF010E9475138D2D9C2D9C01E6
:10142000F901EE15FF05C9F600951095888199819F
:1014300080239123998388830E942B158881998129
:10144000DF91CF911F910F91FF90EF90DF90CF90A0
:101450000895BA010E94D1090895AF92BF92CF9228
:10146000DF92EF92FF920F931F93CF93DF937B0155
:10147000A42EB22E68018C010E941812F80120815E
:101480003181C70182239323BB2021F4892B09F0EA
:101490005AC004C08E159F0509F455C0C114D1046B
:1014A00059F4E9011BC0C7018095909582239323CD
:1014B000F801918380834AC0AA2019F060E071E0AE
:1014C00002C060E070E0B11074606E297F29C8012D
:1014D0000296A6010E94EA14C0E0D0E00E942B15FB
:1014E000CD2829F1882311F40E94690D0E94C312AE
:1014F00091FD1BC00FB6F8940F92F8018081918185
:10150000970128233923BB2019F4232B19F50BC08D
:101510002E153F0541F41EC0E094F094E822F92214
:10152000F801F182E0820F900FBEEC01D070CE0185
:10153000DF91CF911F910F91FF90EF90DF90CF90AF
:10154000BF90AF900895AA2009F0ADCFE901CC2457
:10155000DD24C4CFAA2001F7E6CF8F929F92AF92ED
:10156000BF92CF92DF92EF92FF920F931F93CF9390
:10157000DF93F82EE92E8B015A014901C82ED92E8E
:101580000E941812F601C081D1818F2D9E2DB801C5
:101590000E94D109C02BD12BC5018C239D238A1514
:1015A0009B0569F4950120953095F6018081918124
:1015B00082239323918380838824992410C08114EB
:1015C000910451F0B5017560C6010296A4010E9414
:1015D000EA14C0E0D0E003C0F601C081D1810E94CE
:1015E0002B158928F9F0882311F40E94690D0E94B7
:1015F000C3129C0191FD14C00FB6F8940F92F6012E
:1016000020813181C501822393238A159B0531F402
:10161000A094B094A222B322B182A0820F900FBEF8
:10162000E901D070CE01DF91CF911F910F91FF9012
:10163000EF90DF90CF90BF90AF909F908F900895E4
:10164000CF93DF938BE090E00E94430BEC01009777
:1016500031F0FC0111921192CF010E94FC0BCE01DE

:1016B000CE01820F931F45E08331940770F4281701

:1016F000CF92DF92EF92FF920F931F93DF93CF93DE
:1017000000D000D0CDB7DEB78C01EE24FF249BE7DC
:10171000A92EB12CC12CD12C9924939403C081E023
:10172000E82EF12CA982BA82CB82DC8289819A814F
:10173000AB81BC81895B9B46AC4FBF4F89839A8349
:10174000AB83BC8369817A818B819C812DEF3FEFD4

:1017600069817A818B819C8127E030E040E050E004

:1017800089819A81AB81BC818B519747AE4FBF4F06
:1017900031F6E114F10409F0C2CF0FB6F8940F92BC

:1017C000EF92FF920F93082F85E79BE060E770E0B0

:1017F000CF90BF90AF900895FC019C012D5F3F4FAB
:10180000328321838FEF9FEF9483838336832583F5
:101810003087278310820895FC0111861086089571
:10182000AC01FC01A181B281FB01B383A2831496B8
:101830008D919C911597958384831496ED91FC91DD
:1018400015977383628315967C936E931497FB01AF
:1018500051874087FA0180818F5F80830895CF93FD
:10186000DF939C01EB01488159818FEF4F3F58076F
:1018700021F4F901A781B0850DC0D9011396129604
:10188000ED91FC911397808191814817590710F0D1
:10189000DF01F5CF1296ED91FC911397FB83EA835C
:1018A000D583C483BD83AC831396DC93CE93129708
:1018B00039872887F90180818F5F8083DF91CF91FD
:1018C0000895CF93DF93DC011896CD91DC911997A1
:1018D00012964D915C91139714968D919C9115974A
:1018E000FA019583848314962D913C911597F90103
:1018F0005383428389819A818A179B0711F43A8323
:10190000298319961C921E9218978881815088838A
:10191000DF91CF910895FC0191E1908322E222931F
:1019200083E3829362937293129280E8829312927D
:1019300082E0829383E0829384E0829385E08293C5
:1019400086E0829387E0829388E0829389E08293A5
:1019500080E18293929382E1829383E1829384E196
:10196000829385E1829386E1829387E1829388E185
:10197000829389E1829380E2829381E2829322932F
:1019800083E282934293529386E2829387E2829328
:1019900088E2829389E2829380E3829381E3829357
:1019A0003197CF0108951BBC8CE78ABD8BE08EBDBB

:1019C000CDBFDD91DEBFFF91EF91DF91CF91BF9150
:1019D000AF919F918F917F916F915F914F913F91C7
:1019E0002F911F910F91FF90EF90DF90CF90BF90BC
:1019F000AF909F908F907F906F905F904F903F90AF
:101A00002F901F900F900FBE0F90089581E00895C2
:101A100008950F920FB6F8940F921F9211242F92EF
:101A20003F924F925F926F927F928F929F92AF926E
:101A3000BF92CF92DF92EF92FF920F931F932F935B
:101A40003F934F935F936F937F938F939F93AF9346

:101A8000CDBFDD91DEBFFF91EF91DF91CF91BF918F
:101A9000AF919F918F917F916F915F914F913F9106
:101AA0002F911F910F91FF90EF90DF90CF90BF90FB
:101AB000AF909F908F907F906F905F904F903F90EE
:101AC0002F901F900F900FBE0F9008950E94090D48
:101AD00018950F920FB6F8940F921F9211242F921F
:101AE0003F924F925F926F927F928F929F92AF92AE
:101AF000BF92CF92DF92EF92FF920F931F932F939B
:101B00003F934F935F936F937F938F939F93AF9385

:101B4000EF91DF91CF91BF91AF919F918F917F9155
:101B50006F915F914F913F912F911F910F91FF9046
:101B6000EF90DF90CF90BF90AF909F908F907F903D
:101B70006F905F904F903F902F901F900F900FBEEF
:101B80000F9008950FB6F8940F92FC01828D0F907C
:101B90000FBE0895FC010FB6F8940F92928D0F902E
:101BA0000FBE838D891B0895FC01828D0895FC0171
:101BB000828D90E0882309F491E0892F0895FC013B
:101BC000928D20E0838D981709F421E0822F0895EB

:00000001FF
