:100000000C942A000C9447000C9447000C94470071
:100010000C9447000C9447000C9447000C94080D76
:100020000C9447000C9447000C9447000C94470034
:100030000C9447000C9447000C9447000C94470024
:100040000C9447000C9447000C9447000C94470014
:100050000C94470011241FBECFE5D8E0DEBFCDBF12
:1000600011E0A0E6B0E0EAEAF6E302C005900D92E6
:10007000AE3AB107D9F718E0AEEAB1E001C01D927F
:10008000A832B107E1F70E94381A0C94531B0C9464
:100090000000EF92FF920F931F937B018C0120E0F1
:1000A00030E040E05FE40E94C50388238CF0C80183
:1000B000B70120E030E040E05FE40E94C1010E940F
:1000C000F5039B01AC01205030404040504806C031
:1000D000C801B7010E94F5039B01AC01B901CA0137
:1000E0001F910F91FF90EF900895A0E0B0E0EBE733
:1000F000F0E00C94CE1ADC012B01FA019C919230B5
:1001000008F439C1EB018881823008F433C194309E
:1001100069F4843009F02FC111969C91119789815F
:10012000981709F428C1AEE9B0E025C1843009F47C
:1001300021C18230A9F4923009F01DC19A01AD01AC
:1001400088E0EA010990AE01E90109929E0181501F
:10015000C1F7E201898111969C918923818308C1AD
:10016000923009F407C112962D903C901397EB0141
:100170008A819B811496AD90BD90CD90DC901797AD
:10018000EC80FD800E811F819101281B390BB90184
:1001900037FF04C066277727621B730B6032710537
:1001A0000CF061C0121613066CF537014801062EDB
:1001B00004C096948794779467940A94D2F721E0C8
:1001C00030E040E050E004C0220F331F441F551FB1
:1001D0006A95D2F721503040404050402E213F21B7
:1001E00040235123211531054105510521F021E01E
:1001F00030E040E050E079018A01E628F72808293C
:1002000019293CC0232BD1F1260E371E350146019A
:10021000062E04C096948794779467940A94D2F734
:1002200021E030E040E050E004C0220F331F441FC3
:10023000551F6A95D2F721503040404050402A2146
:100240003B214C215D21211531054105510521F04E
:1002500021E030E040E050E059016A01A628B728CB
:10026000C828D9280BC0821593052CF01C01AA249C
:10027000BB24650103C0EE24FF24870111969C91E5
:10028000D20111968C91981709F445C0992339F041
:10029000A80197012A193B094C095D0906C0A6016E
:1002A00095012E193F09400B510B57FD08C01182D3
:1002B0003382228224833583468357831DC081E0A5
:1002C00081833382228288279927DC01821B930B4A
:1002D000A40BB50B84839583A683B7830DC0220F2F
:1002E000331F441F551F24833583468357838281E0
:1002F000938101979383828324813581468157813D
:10030000DA01C9010197A109B1098F5F9F4FAF4F72
:10031000BF4328F30BC0918333822282EA0CFB1C7B
:100320000C1D1D1DE482F5820683178383E0808304
:10033000248135814681578157FF1AC0C901AA27F8
:1003400097FDA095BA2F81709070A070B0705695EF
:10035000479537952795822B932BA42BB52B848318
:100360009583A683B7838281938101969383828349
:10037000DF0101C0D201CD01CDB7DEB7E2E10C94BF
:10038000EA1AA0E2B0E0E7ECF1E00C94DA1A698333
:100390007A838B839C832D833E834F835887E9E048
:1003A000EE2EF12CEC0EFD1ECE010196B7010E943F
:1003B000E6058E010F5E1F4FCE010596B8010E9423
:1003C000E6058A8991E089278A8BC701B801AE01C9
:1003D000475E5F4F0E9475000E941105A096E6E0FF
:1003E0000C94F61AA0E2B0E0E8EFF1E00C94DA1A0F
:1003F00069837A838B839C832D833E834F835887C5
:10040000F9E0EF2EF12CEC0EFD1ECE010196B701A6
:100410000E94E6058E010F5E1F4FCE010596B801C2
:100420000E94E605C701B801AE01475E5F4F0E941A
:1004300075000E941105A096E6E00C94F61AA0E261
:10044000B0E0E5E2F2E00C94CE1A69837A838B8304
:100450009C832D833E834F835887CE010196BE0136
:10046000675F7F4F0E94E605CE010596BE016F5E75
:100470007F4F0E94E6059985923088F08989823005
:10048000C8F0943019F4823051F404C0843029F457
:10049000923081F48EE990E0C6C0923049F420E0B9
:1004A0009A858A89981321E02A87CE010996BBC0D4
:1004B000823049F420E09A858A89981321E02A8BBA
:1004C000CE014196B0C02D843E844F8458886D88FB
:1004D0007E888F88988CEE24FF248701AA24BB2471
:1004E000650140E050E060E070E0E0E0F0E0C10174
:1004F00081709070892BE9F0E60CF71C081D191D1E
:100500009A01AB012A0D3B1D4C1D5D1D80E090E062
:10051000A0E0B0E0E614F7040805190520F481E036
:1005200090E0A0E0B0E0BA01A901480F591F6A1F8E
:100530007B1FAA0CBB1CCC1CDD1C97FE08C081E0F5
:1005400090E0A0E0B0E0A82AB92ACA2ADB2A3196B6
:10055000E032F10549F0660C771C881C991C569412
:10056000479437942794C3CFFA85EA892B893C892D
:100570008B859C85280F391F2E5F3F4F17C0CA01FE
:1005800081709070892B61F016950795F794E79428
:1005900080E090E0A0E0B0E8E82AF92A0A2B1B2BC3
:1005A00076956795579547952F5F3F4F77FDE7CF36
:1005B0000CC0440F551F661F771F17FD4160EE0CDE
:1005C000FF1C001F111F21503040403090E05907A0
:1005D00090E0690790E4790760F32B8F3C8FDB0193
:1005E000CA018F779070A070B07080349105A1051A
:1005F000B10561F447FD0AC0E114F10401051105DC
:1006000029F0405C5F4F6F4F7F4F40781A8EFE1786
:1006100011F081E08A8F4D8F5E8F6F8F78A383E01A
:10062000898FCE0149960E941105A096E2E10C94B3
:10063000EA1AA8E1B0E0EFE1F3E00C94D61A69837E
:100640007A838B839C832D833E834F835887B9E0C5
:10065000EB2EF12CEC0EFD1ECE010196B7010E948F
:10066000E6058E010F5E1F4FCE010596B8010E9470
:10067000E6052985223008F47EC03989323010F42D
:10068000B8017CC08A859A8989278A87243011F02D
:10069000223031F4231709F06EC06EE970E06EC0AD
:1006A000343039F41D861E861F86188A1C861B86E8
:1006B00004C0323021F484E08987B7015FC02B8504
:1006C0003C858B899C89281B390B3C872B87ED84C3
:1006D000FE840F851889AD88BE88CF88D88CEA142F
:1006E000FB040C051D0540F4EE0CFF1C001F111F40
:1006F000215030403C872B8720E030E040E050E044
:1007000080E090E0A0E0B0E460E070E0EA14FB0478
:100710000C051D0540F0282B392B4A2B5B2BEA18C2
:10072000FB080C091D09B695A79597958795EE0CC2
:10073000FF1C001F111F6F5F7F4F6F31710531F775
:10074000DA01C9018F779070A070B0708034910584
:10075000A105B10561F427FD0AC0E114F10401050A
:10076000110529F0205C3F4F4F4F5F4F20782D87B8
:100770003E874F87588BBE01675F7F4FCB010E943A
:1007800011056896EAE00C94F21AA8E1B0E0EBECEF
:10079000F3E00C94DA1A69837A838B839C832D832C
:1007A0003E834F83588789E0E82EF12CEC0EFD1E26
:1007B000CE010196B7010E94E6058E010F5E1F4F24
:1007C000CE010596B8010E94E6058985823040F089
:1007D0008989823028F0C701B8010E945E0601C0F5
:1007E0008FEF6896E6E00C94F61AACE0B0E0EBEF21
:1007F000F3E00C94DE1A69837A838B839C83CE01A9
:100800000196BE016B5F7F4F0E94E6058D818230AD
:1008100061F1823050F1843021F48E81882351F1CE
:100820002EC02F81388537FD20C06E812F313105D4
:100830001CF06623F9F023C08EE190E0821B930B3D
:1008400029853A854B855C8504C056954795379533
:1008500027958A95D2F76623B1F05095409530954B
:1008600021953F4F4F4F5F4F0EC020E030E040E0FA
:1008700050E009C02FEF3FEF4FEF5FE704C020E0EB
:1008800030E040E050E8B901CA012C96E2E00C9457
:10089000FA1AA8E0B0E0EFE4F4E00C94D61A7B0179
:1008A0008C01611571058105910519F482E0898338
:1008B00060C083E089838EE1C82ED12CDC82CB829C
:1008C000ED82FE820F831887C801B7010E94C2041F
:1008D000FC013197F7FF3BC0222733272E1B3F0B2C
:1008E00057016801022E04C0D694C794B794A79408
:1008F0000A94D2F740E050E060E070E081E090E0E0
:10090000A0E0B0E004C0880F991FAA1FBB1F2A9562
:10091000D2F70197A109B1098E219F21A023B1230C
:100920000097A105B10521F041E050E060E070E0E2
:100930004A295B296C297D294D835E836F837887E3
:100940008EE190E08E1B9F0B9C838B8312C03097AF
:1009500081F00E2E04C0EE0CFF1C001F111F0A9424
:10096000D2F7ED82FE820F831887CE1ADF0ADC826F
:10097000CB821A82CE0101960E9411052896EAE0E8
:100980000C94F21AEF92FF920F931F937B018C014C
:1009900080E0E81680E0F80681E0080780E01807AC
:1009A00088F48FEFE816F1040105110531F028F005
:1009B00088E090E0A0E0B0E017C080E090E0A0E028
:1009C000B0E012C080E0E81680E0F80680E008079A
:1009D00081E0180728F088E190E0A0E0B0E004C0D2
:1009E00080E190E0A0E0B0E020E230E040E050E0C4
:1009F000281B390B4A0B5B0B04C016950795F7941F
:100A0000E7948A95D2F7F701EA55FF4F8081281BBA
:100A1000310941095109C9011F910F91FF90EF90D0
:100A20000895DF92EF92FF920F931F93FC01E480F1
:100A3000F58006811781D1808081823048F480E082
:100A400090E0A0E1B0E0E82AF92A0A2B1B2BA5C010
:100A5000843009F49FC0823021F4EE24FF24870102
:100A600005C0E114F1040105110519F4E0E0F0E01E
:100A700096C0628173819FEF623879070CF05BC08A
:100A800022E83FEF261B370B2A3131052CF020E0FE
:100A900030E040E050E02AC0B801A701022E04C0B7
:100AA00076956795579547950A94D2F781E090E03F
:100AB000A0E0B0E004C0880F991FAA1FBB1F2A95B1
:100AC000D2F70197A109B1098E219F21A023B1235B
:100AD0000097A105B10521F081E090E0A0E0B0E031
:100AE0009A01AB01282B392B4A2B5B2BDA01C90168
:100AF0008F779070A070B07080349105A105B1051A
:100B000039F427FF09C0205C3F4F4F4F5F4F04C0AF
:100B1000215C3F4F4F4F5F4FE0E0F0E02030A0E01E
:100B20003A07A0E04A07A0E45A0710F0E1E0F0E03D
:100B300079018A0127C06038710564F5FB01E1582D
:100B4000FF4FD801C7018F779070A070B0708034CC
:100B50009105A105B10539F4E7FE0DC080E490E0F0
:100B6000A0E0B0E004C08FE390E0A0E0B0E0E80EC9
:100B7000F91E0A1F1B1F17FF05C016950795F7944E
:100B8000E794319687E016950795F794E7948A9550
:100B9000D1F705C0EE24FF248701EFEFF0E06E2FC0
:100BA000679566276795902F9F77D794DD24D79414
:100BB0008E2F8695492F462B582F5D29B701CA01E4
:100BC0001F910F91FF90EF90DF900895FC01DB01E2
:100BD000408151812281622F6F7770E0221F22278E
:100BE000221F9381892F880F822B282F30E0991F95
:100BF0009927991F11969C93119721153105A9F5F5
:100C0000411551056105710511F482E037C082E894
:100C10009FEF13969C938E9312979A01AB0167E016
:100C2000220F331F441F551F6A95D1F783E08C9321
:100C30000DC0220F331F441F551F12968D919C919A
:100C40001397019713969C938E931297203080E010
:100C5000380780E0480780E4580758F314962D932E
:100C60003D934D935C93179708952F3F310579F489
:100C7000411551056105710519F484E08C930895BF
:100C800064FF03C081E08C9312C01C9210C02F57E8
:100C9000304013963C932E93129783E08C9387E019
:100CA000440F551F661F771F8A95D1F770641496FD
:100CB0004D935D936D937C93179708951F93DC017B
:100CC000FB019C91923008F447C08081823008F487
:100CD00043C0943051F411961C91843099F5818170
:100CE000682F70E0611B71093FC0843021F09230A1
:100CF00031F48230B9F18181882389F12DC01196B8
:100D00001C9111978230F1F081811817D9F4129655
:100D10002D913C911397828193818217930794F0D0
:100D200028173907BCF014968D919D910D90BC91B8
:100D3000A02D2481358146815781281739074A071C
:100D40005B0718F4112341F00AC082179307A40728
:100D5000B50740F4112319F061E070E005C06FEFB2
:100D60007FEF02C060E070E0CB011F910895809199
:100D7000AE01882321F08091AF01811181E01092B2
:100D8000AE011092AF0108958F929F92AF92BF92E1
:100D9000CF92DF92EF92FF920F931F93182F8AE06A
:100DA00062E040E00E942E119093B1018093B00167
:100DB00080EB882E81E0982E8CE397E060E670E06F
:100DC00045E550E09401012FEE24FF24CC24DD24DE
:100DD000AA24BB240E944B1580E097E068E670E0EF
:100DE00045E550E094010E944B151F910F91FF9033
:100DF000EF90DF90CF90BF90AF909F908F9008952D
:100E0000CF92DF92EF92FF920F931F93DF93CF93D6
:100E100000D0CDB7DEB77C011A82198200E010E065
:100E20006E010894C11CD11C1FC0F7018081918103
:100E3000B60140E050E020E00E944110813011F006
:100E400001E011C0002351F40FB6F8940F92809185
:100E5000AF018F5F8093AF010F900FBE89819A81A0
:100E600001969A8389831F5F1330FCF288EC90E02F
:100E70000E944C1410E0D9CF9F92AF92BF92CF92B4
:100E8000DF92EF92FF920F931F93DF93CF9300D0E7
:100E9000CDB7DEB7982EC92EEE24FF24DD245E01E7
:100EA0000894A11CB11C23C0F80180819181B50177
:100EB00040E050E020E00E948E0F8130C1F4298193
:100EC0003A812E153F0519F0DD24D3940CC0DD20A6
:100ED00051F40FB6F8940F928091AE018F5F80931A
:100EE000AE010F900FBE79010894E11CF11C092D91
:100EF0001C2DF801808191810E94640D8823A1F648
:100F000084EB90E00E944C14F2CFEF92FF920F938B
:100F10001F93DC011596ED91FC911697E680F78002
:100F20008701045F1F4FC8010E94030C83EE91E00C
:100F3000B8010E94B20B20E0E091B201F091B30140
:100F4000D70156969C918689981708F021E0822F48
:100F50001F910F91FF90EF900895FF920F931F93B1
:100F6000CF93DF9399E0F92E21C0F894E091E80146
:100F7000F091E90106811781C8010C960E94030CCB
:100F80007894E8012296CE010E94030CF80196891C
:100F90008091B401891710F49093B4019F9DC00112
:100FA000112485549E4FBE010E94B20B8091E30133
:100FB0008823D9F60E946D112091B5013091B601B8
:100FC000821B930B9093B8018093B70189E0F82EB0
:100FD00053C001969093BA018093B90121503040DB
:100FE0003093B8012093B701892B09F03EC02091BE
:100FF000DF013091E0018091E1019091E201909355
:10100000E0018093DF013093E2012093E1012DC0E4
:101010000580F681E02DC681D7812091B9013091FC
:10102000BA018A819B812817390730F1F8948E0123
:101030000E5F1F4FC8010E94030C8C899D89892B6C
:1010400021F0CE010C960E94030C78949E89809129
:10105000B401891710F49093B4019F9DC00111242D
:1010600085549E4FB8010E94B20BE091DF01F091D0
:10107000E0018081882361F62091B7013091B801A9
:101080008091B9019091BA012115310509F0A1CFE4
:101090009093B6018093B5019091B40129E006C008
:1010A000992319F41092B40132C09150929FD0014B
:1010B0001124A554BE4F8C91882391F39093B401D1
:1010C0001196ED91FC9112970280F381E02D12961A
:1010D000FC93EE931197CD010396E817F90731F4CD
:1010E0008281938112969C938E9311971196ED9124
:1010F000FC9112970680F781E02DF093B301E09305
:10110000B20120813181CF016789F9010995DF9111
:10111000CF911F910F91FF9008950F931F93CF933D
:10112000DF93EB010091B9011091BA01080F191F6B
:101130008091B2019091B30102960E94030CE0915C
:10114000B201F091B301138302838091B9019091B0
:10115000BA01BF016E5F7F4F0817190728F480910D
:10116000E1019091E20104C08091DF019091E001E2
:101170000E94D10B209749F06091B2017091B301A8
:10118000645F7F4FCE010E94D10BDF91CF911F9101
:101190000F910895AF92BF92CF92DF92EF92FF929C
:1011A0000F931F93CF93DF936C01B62EA42E8AE189
:1011B00090E00E94E50AEC01009711F48FEF59C00E
:1011C0008091B2019091B301892B21F5D093B301A5
:1011D000C093B2018BEB91E00E949E0B84EC91E0F6
:1011E0000E949E0B2DECE22E21E0F22EC7010E9400
:1011F0009E0B06ED11E0C8010E949E0B83EE91E06C
:101200000E949E0BF092E001E092DF011093E20158
:101210000093E101EB2CBB2011F0EE24E394198E36
:10122000188EEE8AAF8AFE01C192D1928F01CF0152
:101230000E94AE0BCE010C960E94AE0BD987C887D8
:10124000DB8BCA8B82E090E08E1991099D878C8799
:101250009E898091B401891710F49093B40189E0BC
:10126000989FC001112485549E4FB8010E94B20B73
:1012700081E0DF91CF911F910F91FF90EF90DF9070
:10128000CF90BF90AF900895FC010FB6F8940F92E5
:10129000208131816095709562237323718360830F
:1012A0000F900FBEC9010895FC01808191810895BE
:1012B000BA010E9444090895CF93DF93EC010E9484
:1012C000671106C08F81988560E072E00E94241249
:1012D0008A818823B9F7CE010E94D50A0E94DA13C9
:1012E000DF91CF910895CF92DF92EF92FF920F930B
:1012F0001F93CF93DF938B01EC0185E0E82EF12C57
:10130000EC0EFD1E0E946711EF81F885888199819E
:10131000802B912B9983888300E010E024C0D28039
:10132000C38080819181BC016070AC0150702881C4
:10133000398192FD05C024233523232B31F40FC0BE
:10134000242335232417350751F470FF02C0042BE2
:10135000152B688179817260CF010E9424128D2D36
:101360009C2D9C01F901EE15FF05C9F6009510951D
:101370008881998180239123998388830E94DA133D
:1013800088819981DF91CF911F910F91FF90EF900C
:10139000DF90CF900895BA010E9473090895AF922B
:1013A000BF92CF92DF92EF92FF920F931F93CF9352
:1013B000DF937B01A42EB22E68018C010E9467117D
:1013C000F80120813181C70182239323BB2021F4BE
:1013D000892B09F05AC004C08E159F0509F455C029
:1013E000C114D10459F4E9011BC0C701809590953F
:1013F00082239323F801918380834AC0AA2019F0A5
:1014000060E071E002C060E070E0B11074606E29CD
:101410007F29C8010296A6010E949913C0E0D0E07E
:101420000E94DA13CD2829F1882311F40E940B0DB4
:101430000E940C1291FD1BC00FB6F8940F92F80198
:1014400080819181970128233923BB2019F4232B14
:1014500019F50BC02E153F0541F41EC0E094F09421
:10146000E822F922F801F182E0820F900FBEEC0130
:10147000D070CE01DF91CF911F910F91FF90EF902F
:10148000DF90CF90BF90AF900895AA2009F0ADCF24
:10149000E901CC24DD24C4CFAA2001F7E6CF8F9246
:1014A0009F92AF92BF92CF92DF92EF92FF920F93F3
:1014B0001F93CF93DF93F82EE92E8B015A01490138
:1014C000C82ED92E0E946711F601C081D1818F2DBF
:1014D0009E2DB8010E947309C02BD12BC5018C230E
:1014E0009D238A159B0569F4950120953095F60199
:1014F00080819181822393239183808388249924FE
:1015000010C08114910451F0B5017560C6010296B6
:10151000A4010E949913C0E0D0E003C0F601C0818D
:10152000D1810E94DA138928F9F0882311F40E94EE
:101530000B0D0E940C129C0191FD14C00FB6F89483
:101540000F92F60120813181C501822393238A15F0
:101550009B0531F4A094B094A222B322B182A08260
:101560000F900FBEE901D070CE01DF91CF911F9196
:101570000F91FF90EF90DF90CF90BF90AF909F9032
:101580008F900895CF93DF938BE090E00E94E50A5F
:10159000EC01009731F0FC0111921192CF010E94F1
:1015A0009E0BCE01DF91CF91089508951092ED0129
:1015B0001092EC0108952BED35E08091EC019091B3
:1015C000ED01281B390BC9010895CF93DF93EC017E
:1015D0000E9467118091EE019091EF01892B31F407
:1015E00081EF91E09093EF018093EE012091EC0167
:1015F0003091ED01CE01820F931F45E08B3D9407A2
:1016000070F42817390758F4C091EE01D091EF011A
:10161000C20FD31F9093ED018093EC0102C0C0E094
:10162000D0E00E94DA13CE01DF91CF9108959F920E
:10163000AF92BF92CF92DF92EF92FF920F931F93E0
:10164000DF93CF9300D000D0CDB7DEB78C01EE246E
:10165000FF249BE7A92EB12CC12CD12C9924939463
:1016600003C081E0E82EF12CA982BA82CB82DC8211
:1016700089819A81AB81BC81895B9B46AC4FBF4F0E
:1016800089839A83AB83BC8369817A818B819C81B6
:101690002DEF3FEF4FEF5FEF0E94721A69837A835D
:1016A0008B839C8369817A818B819C8127E030E0E8
:1016B00040E050E00E94B31AC901DA0189839A839D
:1016C000AB83BC8389819A81AB81BC818B51974765
:1016D000AE4FBF4F31F6E114F10409F0C2CF0FB69F
:1016E000F8940F92F80190820F900FBEBDCF8091B9
:1016F000CC071092CC07811181E00895AF92BF9280
:10170000CF92DF92EF92FF920F93082F87E19BE039
:1017100060E770E045E550E02CEC37E0EE24FF2474
:10172000CC24DD24AA24BB240E944B150F91FF90EA
:10173000EF90DF90CF90BF90AF900895FC019C0197
:101740002D5F3F4F328321838FEF9FEF94838383FD
:10175000368325833087278310820895FC01118604
:1017600010860895AC01FC01A181B281FB01B38315
:10177000A28314968D919C911597958384831496DA
:10178000ED91FC9115977383628315967C936E930C
:101790001497FB0151874087FA0180818F5F808316
:1017A0000895CF93DF939C01EB01488159818FEF1E
:1017B0004F3F580721F4F901A781B0850DC0D90129
:1017C00013961296ED91FC911397808191814817A1
:1017D000590710F0DF01F5CF1296ED91FC911397A8
:1017E000FB83EA83D583C483BD83AC831396DC93E8
:1017F000CE93129739872887F90180818F5F808384
:10180000DF91CF910895CF93DF93DC011896CD91AE
:10181000DC91199712964D915C91139714968D91C6
:101820009C911597FA019583848314962D913C9190
:101830001597F9015383428389819A818A179B07FF
:1018400011F43A83298319961C921E921897888165
:1018500081508883DF91CF910895FC0191E19083BD
:1018600022E2229383E3829362937293129280E83E
:101870008293129282E0829383E0829384E0829347
:1018800085E0829386E0829387E0829388E082936A
:1018900089E0829380E18293929382E1829383E153
:1018A000829384E1829385E1829386E1829387E14A
:1018B000829388E1829389E1829380E2829381E23C
:1018C0008293229383E282934293529386E282939D
:1018D00087E2829388E2829389E2829380E3829313
:1018E00081E382933197CF0108951BBC8CE78ABDB9
:1018F0008BE08EBD89B7806189BFA091CD07B09183
:10190000CE07CD91CDBFDD91DEBFFF91EF91DF918D
:10191000CF91BF91AF919F918F917F916F915F9187
:101920004F913F912F911F910F91FF90EF90DF907A
:10193000CF90BF90AF909F908F907F906F905F906F
:101940004F903F902F901F900F900FBE0F900895D3
:1019500081E0089508950F920FB6F8940F921F92A8
:1019600011242F923F924F925F926F927F928F92AB
:101970009F92AF92BF92CF92DF92EF92FF920F931E
:101980001F932F933F934F935F936F937F938F9307
:101990009F93AF93BF93CF93DF93EF93FF93A09168
:1019A000CD07B091CE070DB60D920EB60D920E94E6
:1019B0009812882311F00E948111A091CD07B09157
:1019C000CE07CD91CDBFDD91DEBFFF91EF91DF91CD
:1019D000CF91BF91AF919F918F917F916F915F91C7
:1019E0004F913F912F911F910F91FF90EF90DF90BA
:1019F000CF90BF90AF909F908F907F906F905F90AF
:101A00004F903F902F901F900F900FBE0F90089512
:101A10000E94AB0C18950F920FB6F8940F921F927C
:101A200011242F923F924F925F926F927F928F92EA
:101A30009F92AF92BF92CF92DF92EF92FF920F935D
:101A40001F932F933F934F935F936F937F938F9346
:101A50009F93AF93BF93CF93DF93EF93FF93A091A7
:101A6000CD07B091CE070DB60D920EB60D920E9425
:101A70008111A091CD07B091CE07CD91CDBFDD9161
:101A8000DEBFFF91EF91DF91CF91BF91AF919F9119
:101A90008F917F916F915F914F913F912F911F9106
:101AA0000F91FF90EF90DF90CF90BF90AF909F90FD
:101AB0008F907F906F905F904F903F902F901F90EE
:101AC0000F900FBE0F9008950FB6F8940F92FC017F
:101AD000828D0F900FBE0895FC010FB6F8940F92FF
:101AE000928D0F900FBE838D891B0895FC01828D0E
:101AF0000895FC01828D90E0882309F491E0892FFC
:101B00000895FC01928D20E0838D981709F421E05F
:101B1000822F08951F93CF93DF93EC01142F4C8DE8
:101B20004423E1F11123B1F48C819D8150E00E94A6
:101B3000051B8C8D2C813D81280F311D3D832C830D
:101B40008A819B812817390748F1888199819D8373
:101B50008C8324C08E819F8150E00E94051B8C8D58
:101B600090E044275527481B590B8E819F81840F95
:101B7000951F9F838E83288139818217930730F4C4
:101B80008A819B81840F951F9F838E83123031F44D
:101B90008A8D882319F08A8D81508A8F8A8D8F5F74
:101BA0008A8F80E0DF91CF911F910895FC01562F1D
:101BB000A72F248D2223B9F086819781820F911D52
:101BC00097838683228133818217930720F0808157
:101BD000918197838683448D66817781852F9A2FA3
:101BE00050E00E94051B08950F931F93CF93DF933E
:101BF000EC018A8D882341F00E811F81CE010E9465
:101C0000D60D1F830E8381E0DF91CF911F910F913D
:101C100008950F931F93CF93DF93FB018A01EC018B
:101C20008A8D882361F18C8D2E813F81280F311D93
:101C30003F832E838A819B812817390720F0888172
:101C400099819F838E838A8D81508A8F4C8D6E817E
:101C50007F81CF0150E00E94051BF801808188231D
:101C600069F48885882351F0CE0108960E94850783
:101C7000882321F081E0F801808301C081E0DF91B9
:101C8000CF911F910F9108951F93CF93DF93142F3E
:101C9000EC019A8D8B8D981788F4CE0140E00E945C
:101CA0008A0D112359F48989882341F0CE01419688
:101CB0000E948507482F811141E0142F812FDF9169
:101CC000CF911F910895CF93DF93FB01EC01F8941E
:101CD0008A8D882371F44115510541F06196CA013E
:101CE000BE010E948D0878948CEF2FC0789480E01C
:101CF0002CC07894F8948A8D882331F18C8D2E81B4
:101D00003F81280F311D3F832E838A819B812817B5
:101D1000390720F0888199819F838E838A8D815035
:101D20008A8F4C8D6E817F81CF0150E00E94051B10
:101D30008885882341F0CE0108960E948507882374
:101D400011F08BEF01C081E07894DF91CF9108957D
:101D5000CF93DF93EC01F8940FB6F8940F928A8D2D
:101D60009B8D0F900FBE891771F44115510541F0FD
:101D70002896CA01BE010E948D0878948CEF1BC082
:101D8000789480E018C07894F8948A8D891710F0C0
:101D900080E010C0CE0140E00E948A0D898988232E
:101DA00041F0CE0141960E948507882311F08BEF08
:101DB00001C081E07894DF91CF910895CF93DF93B4
:101DC000EC0188819981009711F00E94D50ACE011B
:101DD0000E94D50ADF91CF9108950F931F93CF935F
:101DE000DF938A01EC018A8D8823E9F0CE010E94FD
:101DF000D60D8A8D81508A8F8D8D8F3F81F4888595
:101E0000882381F0CE0108960E945812882351F051
:101E10000115110539F081E0F801808304C08D8D32
:101E20008F5F8D8F81E0DF91CF911F910F9108958A
:101E30000F931F93CF93DF938A01EC019A8D8B8DC3
:101E4000981720F0223011F080E023C0CE01422FFD
:101E50000E948A0D882331F00115110519F081E0E7
:101E6000F80180838E8D8F3F81F48989882381F0EA
:101E7000CE0141960E945812882351F00115110598
:101E800039F081E0F801808304C08E8D8F5F8E8FE2
:101E900081E0DF91CF911F910F9108950F931F93D0
:101EA000CF93DF93EC010FB6F8940F928C010F5E85
:101EB0001F4F0DC08989882369F0C8010E945812FC
:101EC000882311F00E9408128E8D81508E8F8E8D86
:101ED000181684F38FEF8E8F0F900FBE0FB6F89405
:101EE0000F928E01085F1F4F0DC08885882369F00F
:101EF000C8010E945812882311F00E9408128D8D8B
:101F000081508D8F8D8D181684F38FEF8D8F0F90EC
:101F10000FBEDF91CF911F910F9108957F928F9205
:101F20009F92AF92BF92CF92DF92EF92FF920F9368
:101F30001F93DF93CF9300D000D00F92CDB7DEB7C1
:101F40005B015D834C83722E8C0191E1C92ED12CF3
:101F5000C00ED11E20E07E010894E11CF11C84E03B
:101F6000882E912C8C0E9D1E01C021E00FB6F89496
:101F70000F92F801828D882339F1E680F780C8013D
:101F8000B5010E94D60D772071F4F801828D815041
:101F9000828F80858823A1F0C80108960E9458127C
:101FA000813071F40BC0F801F782E68281898823C1
:101FB00039F0C6010E945812882311F00E940B0DBF
:101FC0000F900FBE81E04AC08C819D81892B19F44E
:101FD0000F900FBE42C0222319F4C7010E94CA11FC
:101FE0000F900FBE0E9467110FB6F8940F92F80180
:101FF000858D8F3F09F4158EF801868D8F3F09F48A
:10200000168E0F900FBEC701B4010E94D511882310
:10201000F9F40FB6F8940F92F801828D0F900FBE6D
:10202000882381F46C817D81C6010E94BD13C801A3
:102030000E944E0F0E94DA13882309F096CF0E9467
:102040000B0D93CFC8010E944E0F0E94DA138DCF63
:10205000C8010E944E0F0E94DA1380E00F900F908B
:102060000F900F900F90CF91DF911F910F91FF90E4
:10207000EF90DF90CF90BF90AF909F908F907F9028
:1020800008956F927F929F92AF92BF92CF92DF920C
:10209000EF92FF920F931F93DF93CF9300D000D066
:1020A0000F92CDB7DEB76B015D834C83922E8C010E
:1020B00048E0E42EF12CE80EF91E20E05E010894C1
:1020C000A11CB11C34E0632E712C6C0E7D1E01C06E
:1020D00021E00FB6F8940F92F801928D838D981736
:1020E00018F0F2E09F16C9F4C801B601492D0E940C
:1020F0008A0D982FF8018189882339F0C80141960B
:102100000E945812813029F402C0992311F00E94D4
:102110000B0D0F900FBE81E04CC08C819D81892BEF
:1021200019F40F900FBE44C0222319F4C5010E9478
:10213000CA110F900FBE0E9467110FB6F8940F924C
:10214000F801858D8F3F09F4158EF801868D8F3F3C
:1021500009F4168E0F900FBEC501B3010E94D51170
:10216000882309F50FB6F8940F92F801928D0F901D
:102170000FBEF801838D981781F46C817D81C701B2
:102180000E94BD13C8010E944E0F0E94DA138823DB
:1021900009F09ECF0E940B0D9BCFC8010E944E0FED
:1021A0000E94DA1395CFC8010E944E0F0E94DA13E5
:1021B00080E00F900F900F900F900F90CF91DF91D4
:1021C0001F910F91FF90EF90DF90CF90BF90AF9055
:1021D0009F907F906F900895CF93DF93EC010FB69F
:1021E000F8940F92EC8D2B8DE29FC0011124488151
:1021F0005981840F951F9B838A831A8E5D834C833C
:1022000030E021503040F0E02E9FC0012F9F900D14
:102210003E9F900D1124480F591F5F834E838FEF0F
:102220008D8F8E8F662361F48885882389F0CE0197
:1022300008960E945812813059F40E940B0D08C074
:10224000CE0108960E949E0BCE0141960E949E0BE5
:102250000F900FBE81E0DF91CF9108950F931F93F0
:10226000CF93DF93182F062F8823E1F08FE190E0C2
:102270000E94E50AEC010097A9F0019FC00111241A
:1022800001960E94E50A99838883009741F01B8F8D
:102290000C8FCE0161E00E94EC109E0105C0CE01C2
:1022A0000E94D50A20E030E0C901DF91CF911F9153
:1022B0000F9108951F93162F60E042E00E942E11A7
:1022C000FC01009709F0128FCF011F9108958091B2
:1022D000D4078F5F8093D40708950FB6F8940F92B8
:1022E0002091D0073091D1070F900FBEC9010895FA
:1022F0002091D0073091D107C90108958091D60768
:1023000008958091D407882321F081E08093CF073E
:1023100008951092CF0705C08091D3078150809314
:10232000D3078091D30790E0FC0123E0EE0FFF1F5D
:102330002A95E1F7E80FF91FE652F84F80818823CC
:1023400059F39091D30789E0989FD0011124A652A8
:10235000B84F1196ED91FC9112970280F381E02D18
:102360001296FC93EE931197CD010396E817F907A7
:1023700031F48281938112969C938E9311971196DA
:10238000ED91FC911297868197819093CE0780936F
:10239000CD070895FC018091D20780838091D007FA
:1023A0009091D107928381830895FC01DB010FB6E0
:1023B000F8940F924091D0075091D1079091D20795
:1023C0008081981729F08181928148175907E0F49C
:1023D000218132816D917C911197CA01821B930BEF
:1023E0008617970788F4241B350B260F371F2D936C
:1023F0003C938091D20780838091D0079091D10740
:102400009283818380E001C081E00F900FBE089528
:1024100081E08093CF070895E091CD07F091CE073A
:1024200084859585A091CD07B091CE07E091CD0729
:10243000F091CE07468924E030E0241B31091D9637
:102440003C932E931C9708950F931F93CF93DF9384
:10245000FC01706871836083C681D7810E94030C80
:102460008E010E5F1F4FC8010E94030C9E89809150
:10247000D307891710F49093D30789E0989FC00180
:1024800011248652984FB8010E94B20BE091CD07FB
:10249000F091CE079E898689891710F080E003C0ED
:1024A00081E08093CF07DF91CF911F910F91089525
:1024B0000F931F93CF93DF93DC011596ED91FC9161
:1024C0001697C681D7818E01045F1F4FC8010E94F5
:1024D000030C8091D4078823A1F48E010E5F1F4F57
:1024E000C8010E94030C9E898091D307891710F4BC
:1024F0009093D30789E0989FC00111248652984F8A
:1025000002C084E198E0B8010E94B20BE091CD07CF
:10251000F091CE079E898689891710F080E003C06C
:1025200081E08093CF07DF91CF911F910F910895A4
:10253000CF92DF92EF92FF920F931F93CF93DF938F
:102540008091D407882309F0A7C08091D00790918B
:10255000D10701969093D1078093D007E090D007E0
:10256000F090D107E114F10479F520911008309131
:10257000110880911208909113089093110880938C
:10258000100830931308209312088091D2078F5FB0
:102590008093D207E0911008F09111088081882380
:1025A00019F48FEF9FEF0CC0E0911008F091110823
:1025B0000580F681E02D0680F781E02D82819381F0
:1025C0009093A7018093A6018091A6019091A70105
:1025D000E816F90608F449C0DD2449E0C42EE0916C
:1025E0001008F09111088081882319F48FEF9FEF74
:1025F0000EC0E0911008F09111080580F681E02DE1
:10260000C681D7818A819B81E816F90628F49093C8
:10261000A7018093A6012AC08E010E5F1F4FC8013B
:102620000E94030C8C899D89892B21F0CE010C9688
:102630000E94030C9E898091D307891710F4909310
:10264000D3079C9DC00111248652984FB8010E9467
:10265000B20BE091CD07F091CE079E89868998173D
:1026600008F4BDCFDD24D394BACFDD24E091CD07AB
:10267000F091CE07868990E0FC0133E0EE0FFF1F5A
:102680003A95E1F7E80FF91FE652F84F8081823062
:1026900048F0DD24D39406C08091D5078F5F8093E6
:1026A000D507DD248091CF07882311F0DD24D39452
:1026B0008D2DDF91CF911F910F91FF90EF90DF90C3
:1026C000CF900895CF93DF93EC01E091CD07F09187
:1026D000CE07938382838091D0079091D107C8174A
:1026E000D90768F480911208909113086091CD0782
:1026F0007091CE076E5F7F4F0E94D10B17C0809103
:102700001008909111086091CD077091CE076E5F0F
:102710007F4F0E94D10B8091A6019091A701C8170D
:10272000D90720F4D093A701C093A601DF91CF91E0
:1027300008950F931F938A01E091CD07F091CE0782
:102740007068758764876091CD077091CE07645F6C
:102750007F4F0E94B20B8091CD079091CE070296D9
:102760000E94030C8091D0079091D107800F911F98
:102770000E9462131F910F9108950F931F938B0175
:102780006091CD077091CE07645F7F4F0E94D10B9F
:102790008091CD079091CE0702960E94030C809104
:1027A000D0079091D107800F911F0E9462131F9153
:1027B0000F910895EF92FF920F931F93CF93DF93A2
:1027C0000FB6F8940F928091D40781508093D4076C
:1027D0008091D407882309F055C08091D6078823BB
:1027E00059F550C0E0911908F0911A08C681D781B7
:1027F000CE010C960E94030C8E010E5F1F4FC80184
:102800000E94030C9E898091D307891710F490933E
:10281000D3079E9DC00111248652984FB8010E9493
:10282000B20BE091CD07F091CE079E89868998176B
:1028300038F0F092CF0704C059E0E52EFF24F3945E
:1028400080911408882371F68091D507882369F454
:1028500011C00E949812882311F01093CF07809125
:10286000D50781508093D50701C011E08091D5072D
:10287000882379F78091CF07813021F40E940B0DD6
:1028800081E001C080E00F900FBEDF91CF911F91DA
:102890000F91FF90EF9008950F931F93CF93DF93C5
:1028A000EC010097C9F08091D4078F5F8093D40723
:1028B0000091D0071091D1078091CD079091CE075C
:1028C00002960E94030CCE01800F911F0E9462139A
:1028D0000E94DA13882311F40E940B0DDF91CF912F
:1028E0001F910F910895CF93DF93FC01EB0180912D
:1028F000D4078F5F8093D4072091D0073091D10700
:1029000080819181C80FD91F2817390728F4C8176B
:10291000D90728F080E008C0C817D90720F080E068
:102920002C173D0708F481E0D183C083882351F040
:102930008091CD079091CE0702960E94030CCE01A4
:102940000E9462130E94DA13882311F40E940B0D77
:10295000DF91CF9108950F931F93CF93DF930FB61D
:10296000F8940F92009729F4C091CD07D091CE072B
:1029700001C0EC018E010E5F1F4FC8010E94030CC5
:102980008C899D89892B21F0CE010C960E94030C25
:102990008DE198E0B8010E94B20B8091D8078F5F5B
:1029A0008093D8078091D9078F5F8093D9070F90C4
:1029B0000FBE8091D707882349F18091CD07909170
:1029C000CE07C817D90719F40E940B0D1FC00FB608
:1029D000F8940F92E0911008F091110880818823FB
:1029E00019F48FEF9FEF0CC0E0911008F0911108DF
:1029F0000580F681E02D0680F781E02D82819381AC
:102A00009093A7018093A6010F900FBEDF91CF9105
:102A10001F910F910895F8941092D7070E94AA0C65
:102A200008950F931F932CC08091D4078F5F8093DC
:102A3000D40710911D080E94DA13112309F10FB673
:102A4000F8940F92E0912208F091230806811781F3
:102A5000C80102960E94030C8091D6078150809392
:102A6000D6078091D80781508093D8070F900FBE6A
:102A7000F8018789908D0E94D50AC8010E94D50A65
:102A80008091D807882381F68091DA078230C0F3DD
:102A90000E940B0DF5CF2F923F924F925F927F9243
:102AA0008F929F92AF92BF92CF92DF92EF92FF925E
:102AB0000F931F93CF93DF931C01962E872E5A01FD
:102AC0002901702E8DE290E00E94E50AEC0100974A
:102AD00081F0C114D10421F4C5010E94E50A6C0102
:102AE000D88ECF8AC114D10409F0C9C0CE010E948A
:102AF000D50A8FEFB2C0808159968C935997808107
:102B0000882329F09F5F319611969431A1F71CA676
:102B1000072D83E0871508F403E00E8B72E0872E03
:102B2000912C8C0E9D1EC4010E94AE0BCE010C9602
:102B30000E94AE0BD987C88784E090E0801B910982
:102B40009D878C87DB8BCA8B0894A108B108C601CE
:102B50008A0D9B1DB101A2010E942D0C99838883CF
:102B6000E114F10419F0F701D183C0830FB6F89492
:102B70000F928091D6078F5F8093D6078091CD0703
:102B80009091CE07892BA9F5D093CE07C093CD079E
:102B90008091D6078130E1F58AED97E00E949E0B87
:102BA00083EE97E00E949E0B8CEE97E00E949E0BB6
:102BB00085EF97E00E949E0B6EEFE62E67E0F62E03
:102BC000C7010E949E0B07E018E0C8010E949E0BFF
:102BD00084E198E00E949E0B8DE198E00E949E0B9C
:102BE000F0921108E0921008109313080093120855
:102BF0000FC08091D707882359F4E091CD07F09159
:102C0000CE078689781620F0D093CE07C093CD07E3
:102C10008091D9078F5F8093D9079E898091D307D0
:102C2000891710F49093D30789E0989FC00111246D
:102C30008652984FB4010E94B20B0F900FBE809144
:102C4000D707882349F0E091CD07F091CE07868918
:102C5000871510F40E940B0D81E0DF91CF911F9139
:102C60000F91FF90EF90DF90CF90BF90AF909F902B
:102C70008F907F905F904F903F902F900895892D77
:102C8000982D9C01F901DE0190E035CFAF92BF9203
:102C9000CF92DF92EF92FF920F9381E195E168E787
:102CA00070E045E550E020E030E000E0EE24FF2455
:102CB000CC24DD24AA24BB240E944B15813049F486
:102CC000F8948093D7071092D1071092D0070E94F2
:102CD000750C0F91FF90EF90DF90CF90BF90AF9069
:102CE00008950F931F93182F81E463E040E00E9442
:102CF0004D1812951F7082E4612F0E94F01884E431
:102D000066E041E00E944D1800ED17E0C801019710
:102D1000F1F784E466E040E00E944D18C801019795
:102D2000F1F71F910F910895EF92FF921F93182FC3
:102D300081E463E040E00E944D18612F62956F705E
:102D400082E40E94F01884E466E041E00E944D189D
:102D500080EDE82E87E0F82EC7010197F1F784E4B3
:102D600066E040E00E944D18C7010197F1F71F701F
:102D700082E4612F0E94F01884E466E041E00E9442
:102D80004D18C7010197F1F784E466E040E00E9426
:102D90004D18C7010197F1F71F91FF90EF9008952B
:102DA000DF93CF9300D000D0CDB7DEB790E8998302
:102DB00090EC9A8394E99B8394ED9C83FE01E80F49
:102DC000F11D8181860F0E94941680E49CE9019791
:102DD000F1F70F900F900F900F90CF91DF91089522
:102DE00081E00E94941680E29EE40197F1F7089535
:102DF0000F931F9382E46FE00E94CE1884E466E094
:102E000041E00E94CC1781E463E041E00E94CC17CE
:102E100080E30E94711600E21EE4C8010197F1F7F9
:102E200080E30E947116C8010197F1F780E30E94C8
:102E30007116C8010197F1F780E20E947116C8016E
:102E40000197F1F7C8010197F1F788E20E94941603
:102E50008CE00E94941686E00E94941680E80E94FE
:102E6000941680E49CE90197F1F71F910F91089562
:102E7000EF92FF921F93182F81E463E041E00E94DC
:102E80004D18612F62956F7082E40E94F01884E4FF
:102E900066E041E00E944D1890EDE92E97E0F92E92
:102EA000C7010197F1F784E466E040E00E944D1805
:102EB000C7010197F1F71F7082E4612F0E94F0189B
:102EC00084E466E041E00E944D18C7010197F1F7E4
:102ED00084E466E040E00E944D18C7010197F1F7D5
:102EE0001F91FF90EF900895CF93DF93EC0102C004
:102EF0000E94381789918823D9F7DF91CF910895DF
:102F000087E00E94BE17089581E466E040E00E94D9
:102F1000CC1781E0089585E00E94BE17A0E0B0E0E4
:102F2000BC01CD010E94490426EF38E24CE950E48F
:102F30000E941F0220E030E040E251E40E941903A9
:102F40000E944900CB01089581E465E040E00E94C1
:102F5000CC1781E00895369A81E0089597B1907E6C
:102F600097B997B1982B97B981E0089517B816B81B
:102F700080E487B987E886B981E0089597B1907EAB
:102F800097B997B1982B97B9369A349BFECF349A5C
:102F900024B135B1C9010895843409F44AC0853497
:102FA00040F4823469F1833408F05CC0813469F400
:102FB0000EC0823629F1833618F4813631F407C009
:102FC000833609F44FC08436A1F18FEF089544236E
:102FD00059F02AB381E090E002C0880F991F6A95EA
:102FE000E2F7282B2ABB4AC02AB381E090E002C056
:102FF000880F991F6A95E2F7809582238ABB3EC0AD
:10300000442359F027B381E090E002C0880F991F54
:103010006A95E2F7282B27BB31C027B381E090E007
:1030200002C0880F991F6A95E2F78095822387BBBB
:1030300025C0442359F021B381E090E002C0880FFD
:10304000991F6A95E2F7282B21BB18C021B381E0B4
:1030500090E002C0880F991F6A95E2F7809582235D
:1030600081BB0CC0442361F024B381E090E002C036
:10307000880F991F6A95E2F7282B24BB81E00895F9
:1030800024B381E090E002C0880F991F6A95E2F7AF
:103090008095822384BB81E00895843409F44AC07A
:1030A000853440F4823469F1833408F05CC08134A3
:1030B00069F40EC0823629F1833618F4813631F472
:1030C00007C0833609F44FC08436A1F18FEF08950D
:1030D000442359F02BB381E090E002C0880F991F80
:1030E0006A95E2F7282B2BBB4AC02BB381E090E016
:1030F00002C0880F991F6A95E2F7809582238BBBE7
:103100003EC0442359F028B381E090E002C0880F0C
:10311000991F6A95E2F7282B28BB31C028B381E0BC
:1031200090E002C0880F991F6A95E2F7809582238C
:1031300088BB25C0442359F022B381E090E002C04F
:10314000880F991F6A95E2F7282B22BB18C022B37B
:1031500081E090E002C0880F991F6A95E2F78095A0
:10316000822382BB0CC0442361F025B381E090E050
:1031700002C0880F991F6A95E2F7282B25BB81E0D2
:10318000089525B381E090E002C0880F991F6A95E9
:10319000E2F78095822385BB81E008958434D1F0E5
:1031A000853438F48234A1F08334B8F4813461F486
:1031B0000DC0823669F0833618F4813629F406C0D2
:1031C000833659F0843631F08FEF08956ABB03C01F
:1031D00067BB01C064BB81E0089561BB81E00895D5
:1031E0008434D1F0853438F48234A1F08334B8F4D7
:1031F000813461F40DC0823669F0833618F481366B
:1032000029F406C0833659F0843631F08FEF0895E3
:103210006BBB03C068BB01C062BB81E0089565BBA6
:1032200081E008958434D1F0853438F48234A1F0FB
:103230008334E8F4813461F40DC0823669F083365A
:1032400018F4813629F406C0833689F0843631F0CB
:103250008FEF089589B303C086B301C080B390E0B7
:1032600002C0959587956A95E2F78170089583B3BA
:1032700090E002C0959587956A95E2F78170089570
:103280009C0140E050E084E0220F331F441F551F93
:103290008A95D1F760E072E18AE790E00E94911A86
:1032A0002150304029B930BD86E880BD88E18AB917
:1032B00008955F9BFECF8CB108955D9BFECF8CB9C6
:1032C0000895FC0104C05D9BFECF8CB931968081CE
:1032D0008823C9F70895EF92FF920F931F93DF930E
:1032E000CF93CDB7DEB72A970FB6F894DEBF0FBEE7
:1032F000CDBF81E089831B821A821D821C8282E0FD
:103300008E8318861F821A8619867E010894E11C16
:10331000F11C8E010A5F1F4F0E948B179B838A83CB
:103320000E94801798878F832A813B818C819D81A1
:103330002817390761F03D832C83809126089091EE
:103340002708B7014FEF5FEF20E00E94411088EEA1
:1033500093E00E944C142F81388589859A8528171F
:10336000390761F03A8729878091260890912708CC
:10337000B8014FEF5FEF20E00E94411088EE93E02C
:103380000E944C14C9CFCF92DF92EF92FF920F931D
:103390001F93DF93CF93CDB7DEB72A970FB6F8947C
:1033A000DEBF0FBECDBF00E010E06E010894C11C6F
:1033B000D11C86E0E82EF12CEC0EFD1E8091260833
:1033C00090912708B6014FEF5FEF20E00E948E0F2B
:1033D000882329F08981813011F40A811B810E94A0
:1033E000F01680E060E00E94D0168DE790E00E9429
:1033F0007417C801B7014AE050E00E940E1BC701D4
:103400000E94741780ED97E00E944C14D7CF0E9461
:10341000F8160E94F01680E060E00E94D01685E861
:1034200090E00E94741780E197E228EC30E0F90107
:103430003197F1F70197D9F70E94F01680E060E02C
:103440000E94D0160E9484170E94A4170E94B617EB
:1034500081E990E00E94741780E197E228EC30E067
:10346000F9013197F1F70197D9F70E94F016089505
:10347000AF92BF92CF92DF92EF92FF920F930E9492
:10348000071A8AE065E040E00E942E119093270819
:103490008093260883EC99E160E070E04CE251E013
:1034A00020E030E001E0EE24FF24CC24DD24AA2437
:1034B000BB240E944B158BE699E160E070E04CE282
:1034C00051E020E030E002E00E944B150E944616D9
:1034D00080E090E00F91FF90EF90DF90CF90BF9051
:1034E000AF900895629FD001739FF001829FE00D1D
:1034F000F11D649FE00DF11D929FF00D839FF00D73
:10350000749FF00D659FF00D9927729FB00DE11D1E
:10351000F91F639FB00DE11DF91FBD01CF011124FB
:103520000895A1E21A2EAA1BBB1BFD010DC0AA1F04
:10353000BB1FEE1FFF1FA217B307E407F50720F01C
:10354000A21BB30BE40BF50B661F771F881F991F97
:103550001A9469F760957095809590959B01AC01E0
:10356000BD01CF01089597FB092E05260ED057FD0A
:1035700004D0D7DF0AD0001C38F450954095309520
:1035800021953F4F4F4F5F4F0895F6F790958095E7
:10359000709561957F4F8F4F9F4F08952F923F9267
:1035A0004F925F926F927F928F929F92AF92BF9253
:1035B000CF92DF92EF92FF920F931F93CF93DF93FF
:1035C000CDB7DEB7CA1BDB0B0FB6F894DEBF0FBE5C
:1035D000CDBF09942A88398848885F846E847D84A9
:1035E0008C849B84AA84B984C884DF80EE80FD80AB
:1035F0000C811B81AA81B981CE0FD11D0FB6F89421
:10360000DEBF0FBECDBFED010895FB01DC0102C09E
:1036100001900D9241505040D8F70895FB019F0151
:10362000E8944230C4F04532B4F44A3029F497FBB0
:103630001EF4909581959F4F642F77270E943F1B22
:10364000805D8A330CF0895D8193CB010097A1F7EF
:1036500016F45DE251931082C9010C942F1BDC011A
:10366000FC01672F71917723E1F7329704C07C91B9
:103670006D9370836291AE17BF07C8F30895AA1BBC
:10368000BB1B51E107C0AA1FBB1FA617B70710F04D
:10369000A61BB70B881F991F5A95A9F7809590957F
:0A36A000BC01CD010895F894FFCF9E
:1036AA0051436F6E734E42005150726F644E420026
:1036BA00496E744D6174680049444C450054656D07
:1036CA0070203A20004C434420576F726B696E6732
:1036DA0000496E697469616C697A696E67000000F5
:1036EA0000000000000000010202030303030404B7
:1036FA000404040404040505050505050505050576
:10370A000505050505050606060606060606060655
:10371A00060606060606060606060606060606063F
:10372A000606060606060707070707070707070725
:10373A00070707070707070707070707070707070F
:10374A0007070707070707070707070707070707FF
:10375A0007070707070707070707070707070707EF
:10376A0007070707070708080808080808080808D5
:10377A0008080808080808080808080808080808BF
:10378A0008080808080808080808080808080808AF
:10379A00080808080808080808080808080808089F
:1037AA00080808080808080808080808080808088F
:1037BA00080808080808080808080808080808087F
:1037CA00080808080808080808080808080808086F
:1037DA00080808080808080808080808080808085F
:0E37EA00080808080808FFFF40050007000057
:00000001FF
