:100000000C942A000C9447000C9447000C94470071
:100010000C9447000C9447000C9447000C94660D18
:100020000C9447000C9447000C9447000C94470034
:100030000C9447000C9491190C9447000C9464198B
:100040000C9447000C9447000C9447000C94470014
:100050000C94470011241FBECFE5D8E0DEBFCDBF12
:1000600011E0A0E6B0E0EAE4FBE302C005900D92E7
:10007000A23BB107D9F717E0A2EBB1E001C01D9296
:10008000A737B107E1F70E94711C0C94A31D0C94D3
:100090000000EF92FF920F931F937B018C0120E0F1
:1000A00030E040E05FE40E94C50388238CF0C80183
:1000B000B70120E030E040E05FE40E94C1010E940F
:1000C00053049B01AC01205030404040504806C0D2
:1000D000C801B7010E9453049B01AC01B901CA01D8
:1000E0001F910F91FF90EF900895A0E0B0E0EBE733
:1000F000F0E00C941E1DDC012B01FA019C91923062
:1001000008F439C1EB018881823008F433C194309E
:1001100069F4843009F02FC111969C91119789815F
:10012000981709F428C1A8EAB0E025C1843009F481
:1001300021C18230A9F4923009F01DC19A01AD01AC
:1001400088E0EA010990AE01E90109929E0181501F
:10015000C1F7E201898111969C918923818308C1AD
:10016000923009F407C112962D903C901397EB0141
:100170008A819B811496AD90BD90CD90DC901797AD
:10018000EC80FD800E811F819101281B390BB90184
:1001900037FF04C066277727621B730B6032710537
:1001A0000CF061C0121613066CF537014801062EDB
:1001B00004C096948794779467940A94D2F721E0C8
:1001C00030E040E050E004C0220F331F441F551FB1
:1001D0006A95D2F721503040404050402E213F21B7
:1001E00040235123211531054105510521F021E01E
:1001F00030E040E050E079018A01E628F72808293C
:1002000019293CC0232BD1F1260E371E350146019A
:10021000062E04C096948794779467940A94D2F734
:1002200021E030E040E050E004C0220F331F441FC3
:10023000551F6A95D2F721503040404050402A2146
:100240003B214C215D21211531054105510521F04E
:1002500021E030E040E050E059016A01A628B728CB
:10026000C828D9280BC0821593052CF01C01AA249C
:10027000BB24650103C0EE24FF24870111969C91E5
:10028000D20111968C91981709F445C0992339F041
:10029000A80197012A193B094C095D0906C0A6016E
:1002A00095012E193F09400B510B57FD08C01182D3
:1002B0003382228224833583468357831DC081E0A5
:1002C00081833382228288279927DC01821B930B4A
:1002D000A40BB50B84839583A683B7830DC0220F2F
:1002E000331F441F551F24833583468357838281E0
:1002F000938101979383828324813581468157813D
:10030000DA01C9010197A109B1098F5F9F4FAF4F72
:10031000BF4328F30BC0918333822282EA0CFB1C7B
:100320000C1D1D1DE482F5820683178383E0808304
:10033000248135814681578157FF1AC0C901AA27F8
:1003400097FDA095BA2F81709070A070B0705695EF
:10035000479537952795822B932BA42BB52B848318
:100360009583A683B7838281938101969383828349
:10037000DF0101C0D201CD01CDB7DEB7E2E10C94BF
:100380003A1DA0E2B0E0E7ECF1E00C942A1D69838D
:100390007A838B839C832D833E834F835887E9E048
:1003A000EE2EF12CEC0EFD1ECE010196B7010E943F
:1003B00044068E010F5E1F4FCE010596B8010E94C4
:1003C00044068A8991E089278A8BC701B801AE016A
:1003D000475E5F4F0E9475000E946F05A096E6E0A1
:1003E0000C94461DA0E2B0E0E8EFF1E00C942A1D69
:1003F00069837A838B839C832D833E834F835887C5
:10040000F9E0EF2EF12CEC0EFD1ECE010196B701A6
:100410000E9444068E010F5E1F4FCE010596B80163
:100420000E944406C701B801AE01475E5F4F0E94BB
:1004300075000E946F05A096E6E00C94461DA0E2B0
:10044000B0E0E5E2F2E00C941E1D69837A838B83B1
:100450009C832D833E834F835887CE010196BE0136
:10046000675F7F4F0E944406CE010596BE016F5E16
:100470007F4F0E9444069985923088F089898230A6
:10048000C8F0943019F4823051F404C0843029F457
:10049000923081F488EA90E0C6C0923049F420E0BE
:1004A0009A858A89981321E02A87CE010996BBC0D4
:1004B000823049F420E09A858A89981321E02A8BBA
:1004C000CE014196B0C02D843E844F8458886D88FB
:1004D0007E888F88988CEE24FF248701AA24BB2471
:1004E000650140E050E060E070E0E0E0F0E0C10174
:1004F00081709070892BE9F0E60CF71C081D191D1E
:100500009A01AB012A0D3B1D4C1D5D1D80E090E062
:10051000A0E0B0E0E614F7040805190520F481E036
:1005200090E0A0E0B0E0BA01A901480F591F6A1F8E
:100530007B1FAA0CBB1CCC1CDD1C97FE08C081E0F5
:1005400090E0A0E0B0E0A82AB92ACA2ADB2A3196B6
:10055000E032F10549F0660C771C881C991C569412
:10056000479437942794C3CFFA85EA892B893C892D
:100570008B859C85280F391F2E5F3F4F17C0CA01FE
:1005800081709070892B61F016950795F794E79428
:1005900080E090E0A0E0B0E8E82AF92A0A2B1B2BC3
:1005A00076956795579547952F5F3F4F77FDE7CF36
:1005B0000CC0440F551F661F771F17FD4160EE0CDE
:1005C000FF1C001F111F21503040403090E05907A0
:1005D00090E0690790E4790760F32B8F3C8FDB0193
:1005E000CA018F779070A070B07080349105A1051A
:1005F000B10561F447FD0AC0E114F10401051105DC
:1006000029F0405C5F4F6F4F7F4F40781A8EFE1786
:1006100011F081E08A8F4D8F5E8F6F8F78A383E01A
:10062000898FCE0149960E946F05A096E2E10C9455
:100630003A1DA8E1B0E0EFE1F3E00C94261D6983D8
:100640007A838B839C832D833E834F835887B9E0C5
:10065000EB2EF12CEC0EFD1ECE010196B7010E948F
:1006600044068E010F5E1F4FCE010596B8010E9411
:1006700044062985223008F47EC03989323010F4CE
:10068000B8017CC08A859A8989278A87243011F02D
:10069000223031F4231709F06EC068EA70E06EC0B2
:1006A000343039F41D861E861F86188A1C861B86E8
:1006B00004C0323021F484E08987B7015FC02B8504
:1006C0003C858B899C89281B390B3C872B87ED84C3
:1006D000FE840F851889AD88BE88CF88D88CEA142F
:1006E000FB040C051D0540F4EE0CFF1C001F111F40
:1006F000215030403C872B8720E030E040E050E044
:1007000080E090E0A0E0B0E460E070E0EA14FB0478
:100710000C051D0540F0282B392B4A2B5B2BEA18C2
:10072000FB080C091D09B695A79597958795EE0CC2
:10073000FF1C001F111F6F5F7F4F6F31710531F775
:10074000DA01C9018F779070A070B0708034910584
:10075000A105B10561F427FD0AC0E114F10401050A
:10076000110529F0205C3F4F4F4F5F4F20782D87B8
:100770003E874F87588BBE01675F7F4FCB010E943A
:100780006F056896EAE00C94421DA8E1B0E0EBEC3E
:10079000F3E00C942A1D69837A838B839C832D83D9
:1007A0003E834F83588789E0E82EF12CEC0EFD1E26
:1007B000CE010196B7010E9444068E010F5E1F4FC5
:1007C000CE010596B8010E9444068985823040F02A
:1007D0008989823028F0C701B8010E94BC0601C097
:1007E0008FEF6896E6E00C94461DA8E0B0E0EBEFD2
:1007F000F3E00C94271D9B01AC0183E08983DA01AF
:10080000C9018827B7FD83959927AA27BB27B82E4A
:10081000211531054105510519F482E089833AC05B
:100820008823A9F0203080E0380780E0480780E87E
:10083000580729F460E070E080E09FEC30C0EE24BF
:10084000FF248701E21AF30A040B150B02C0790199
:100850008A018EE1C82ED12CDC82CB82ED82FE8211
:100860000F831887C801B7010E9420050197181649
:10087000190684F4082E04C0EE0CFF1C001F111F83
:100880000A94D2F7ED82FE820F831887C81AD90A1C
:10089000DC82CB82BA82CE0101960E946F05289637
:1008A000E9E00C94431DACE0B0E0E9E5F4E00C9421
:1008B0002E1D69837A838B839C83CE010196BE01B2
:1008C0006B5F7F4F0E9444068D81823061F18230E0
:1008D00050F1843021F48E81882351F12EC02F8174
:1008E000388537FD20C06E812F3131051CF066231D
:1008F000F9F023C08EE190E0821B930B29853A85A5
:100900004B855C8504C056954795379527958A9504
:10091000D2F76623B1F050954095309521953F4F21
:100920004F4F5F4F0EC020E030E040E050E009C084
:100930002FEF3FEF4FEF5FE704C020E030E040E0F3
:1009400050E8B901CA012C96E2E00C944A1DA8E0D7
:10095000B0E0EDEAF4E00C94261D7B018C016115FA
:1009600071058105910519F482E0898360C083E0F7
:1009700089838EE1C82ED12CDC82CB82ED82FE826F
:100980000F831887C801B7010E942005FC01319729
:10099000F7FF3BC0222733272E1B3F0B570168016F
:1009A000022E04C0D694C794B794A7940A94D2F7A1
:1009B00040E050E060E070E081E090E0A0E0B0E076
:1009C00004C0880F991FAA1FBB1F2A95D2F7019751
:1009D000A109B1098E219F21A023B1230097A10570
:1009E000B10521F041E050E060E070E04A295B2968
:1009F0006C297D294D835E836F8378878EE190E03B
:100A00008E1B9F0B9C838B8312C0309781F00E2E20
:100A100004C0EE0CFF1C001F111F0A94D2F7ED82D8
:100A2000FE820F831887CE1ADF0ADC82CB821A82FD
:100A3000CE0101960E946F052896EAE00C94421DB3
:100A4000EF92FF920F931F937B018C0180E0E816D9
:100A500080E0F80681E0080780E0180788F48FEF4F
:100A6000E816F1040105110531F028F088E090E066
:100A7000A0E0B0E017C080E090E0A0E0B0E012C0DD
:100A800080E0E81680E0F80680E0080781E01807BB
:100A900028F088E190E0A0E0B0E004C080E190E0C0
:100AA000A0E0B0E020E230E040E050E0281B390B4D
:100AB0004A0B5B0B04C016950795F794E7948A954B
:100AC000D2F7F701E055FF4F8081281B310941091A
:100AD0005109C9011F910F91FF90EF900895DF9286
:100AE000EF92FF920F931F93FC01E480F580068143
:100AF0001781D1808081823048F480E090E0A0E1CD
:100B0000B0E0E82AF92A0A2B1B2BA5C0843009F48F
:100B10009FC0823021F4EE24FF24870105C0E11438
:100B2000F1040105110519F4E0E0F0E096C06281DE
:100B300073819FEF623879070CF05BC022E83FEFCA
:100B4000261B370B2A3131052CF020E030E040E045
:100B500050E02AC0B801A701022E04C0769567951F
:100B6000579547950A94D2F781E090E0A0E0B0E075
:100B700004C0880F991FAA1FBB1F2A95D2F701979F
:100B8000A109B1098E219F21A023B1230097A105BE
:100B9000B10521F081E090E0A0E0B0E09A01AB0166
:100BA000282B392B4A2B5B2BDA01C9018F779070E8
:100BB000A070B07080349105A105B10539F427FF0C
:100BC00009C0205C3F4F4F4F5F4F04C0215C3F4F37
:100BD0004F4F5F4FE0E0F0E02030A0E03A07A0E0A8
:100BE0004A07A0E45A0710F0E1E0F0E079018A0139
:100BF00027C06038710564F5FB01E158FF4FD8014B
:100C0000C7018F779070A070B07080349105A105F6
:100C1000B10539F4E7FE0DC080E490E0A0E0B0E05B
:100C200004C08FE390E0A0E0B0E0E80EF91E0A1FD8
:100C30001B1F17FF05C016950795F794E79431968B
:100C400087E016950795F794E7948A95D1F705C044
:100C5000EE24FF248701EFEFF0E06E2F6795662703
:100C60006795902F9F77D794DD24D7948E2F869504
:100C7000492F462B582F5D29B701CA011F910F91AB
:100C8000FF90EF90DF900895FC01DB0140815181DE
:100C90002281622F6F7770E0221F2227221F93810B
:100CA000892F880F822B282F30E0991F9927991FB1
:100CB00011969C93119721153105A9F54115510500
:100CC0006105710511F482E037C082E89FEF139649
:100CD0009C938E9312979A01AB0167E0220F331F0A
:100CE000441F551F6A95D1F783E08C930DC0220FE6
:100CF000331F441F551F12968D919C911397019796
:100D000013969C938E931297203080E0380780E0F2
:100D1000480780E4580758F314962D933D934D935C
:100D20005C93179708952F3F310579F441155105CC
:100D30006105710519F484E08C93089564FF03C084
:100D400081E08C9312C01C9210C02F573040139634
:100D50003C932E93129783E08C9387E0440F551FAA
:100D6000661F771F8A95D1F7706414964D935D9333
:100D70006D937C93179708951F93DC01FB019C9161
:100D8000923008F447C08081823008F443C0943028
:100D900051F411961C91843099F58181682F70E08F
:100DA000611B71093FC0843021F0923031F48230F0
:100DB000B9F18181882389F12DC011961C91119779
:100DC0008230F1F081811817D9F412962D913C915F
:100DD0001397828193818217930794F0281739071C
:100DE000BCF014968D919D910D90BC91A02D248105
:100DF000358146815781281739074A075B0718F460
:100E0000112341F00AC082179307A407B50740F4E5
:100E1000112319F061E070E005C06FEF7FEF02C0B1
:100E200060E070E0CB011F9108958091B2018823AA
:100E300021F08091B301811181E01092B2011092F2
:100E4000B30108958F929F92AF92BF92CF92DF929B
:100E5000EF92FF920F931F93182F8AE062E040E019
:100E60000E94DF119093B5018093B40184EB882E2A
:100E700081E0982E8AE997E060E670E045E550E071
:100E80009401012FEE24FF24CC24DD24AA24BB24CA
:100E90000E949C168EE597E068E670E045E550E01C
:100EA00094010E949C161F910F91FF90EF90DF908C
:100EB000CF90BF90AF909F908F900895CF92DF9288
:100EC000EF92FF920F931F93DF93CF9300D0CDB794
:100ED000DEB77C011A82198200E010E06E010894EE
:100EE000C11CD11C1FC0F70180819181B60140E077
:100EF00050E020E00E94C610813011F001E011C0E6
:100F0000002351F40FB6F8940F928091B3018F5FD4
:100F10008093B3010F900FBE89819A8101969A83C5
:100F200089831F5F1330FCF288EC90E00E949D15CE
:100F300010E0D9CF9F92AF92BF92CF92DF92EF9203
:100F4000FF920F931F93DF93CF9300D0CDB7DEB7FF
:100F5000982EC92EEE24FF24DD245E010894A11CE6
:100F6000B11C23C0F80180819181B50140E050E0BF
:100F700020E00E94FA0F8130C1F429813A812E15B8
:100F80003F0519F0DD24D3940CC0DD2051F40FB6D9
:100F9000F8940F928091B2018F5F8093B2010F900D
:100FA0000FBE79010894E11CF11C092D1C2DF801DC
:100FB000808191810E94C20D8823A1F684EB90E08C
:100FC0000E949D15F2CFEF92FF920F931F93DC01C9
:100FD0001596ED91FC911697E680F7808701045FE6
:100FE0001F4FC8010E94610C87EE91E0B8010E947A
:100FF000100C20E0E091B601F091B701D7015696B0
:101000009C918689981708F021E0822F1F910F91FB
:10101000FF90EF900895FF920F931F93CF93DF936C
:1010200099E0F92E21C0F894E091EC01F091ED01E6
:1010300006811781C8010C960E94610C7894E80122
:101040002296CE010E94610CF80196898091B80128
:10105000891710F49093B8019F9DC0011124815409
:101060009E4FBE010E94100C8091E7018823D9F6A3
:101070000E941E122091B9013091BA01821B930B7C
:101080009093BC018093BB0189E0F82E53C0019678
:101090009093BE018093BD01215030403093BC013C
:1010A0002093BB01892B09F03EC02091E3013091D0
:1010B000E4018091E5019091E6019093E401809331
:1010C000E3013093E6012093E5012DC00580F68110
:1010D000E02DC681D7812091BD013091BE018A816A
:1010E0009B812817390730F1F8948E010E5F1F4F4E
:1010F000C8010E94610C8C899D89892B21F0CE0149
:101100000C960E94610C78949E898091B801891791
:1011100010F49093B8019F9DC001112481549E4FFB
:10112000B8010E94100CE091E301F091E40180818C
:10113000882361F62091BB013091BC018091BD01F3
:101140009091BE012115310509F0A1CF9093BA010C
:101150008093B9019091B80129E006C0992319F450
:101160001092B80132C09150929FD0011124A15425
:10117000BE4F8C91882391F39093B8011196ED9115
:10118000FC9112970280F381E02D1296FC93EE936E
:101190001197CD010396E817F90731F48281938105
:1011A00012969C938E9311971196ED91FC91129744
:1011B0000680F781E02DF093B701E093B60120811E
:1011C0003181CF016789F9010995DF91CF911F9195
:1011D0000F91FF9008950F931F93CF93DF93EB012F
:1011E0000091BD011091BE01080F191F8091B60139
:1011F0009091B70102960E94610CE091B601F091C6
:10120000B701138302838091BD019091BE01BF019C
:101210006E5F7F4F0817190728F48091E5019091C0
:10122000E60104C08091E3019091E4010E942F0C3B
:10123000209749F06091B6017091B701645F7F4FCC
:10124000CE010E942F0CDF91CF911F910F91089535
:10125000AF92BF92CF92DF92EF92FF920F931F93C4
:10126000CF93DF936C01B62EA42E8AE190E00E940A
:10127000430BEC01009711F48FEF59C08091B60138
:101280009091B701892B21F5D093B701C093B60196
:101290008FEB91E00E94FC0B88EC91E00E94FC0B2C
:1012A00021EDE22E21E0F22EC7010E94FC0B0AED97
:1012B00011E0C8010E94FC0B87EE91E00E94FC0B3C
:1012C000F092E401E092E3011093E6010093E5015E
:1012D000EB2CBB2011F0EE24E394198E188EEE8ACD
:1012E000AF8AFE01C192D1928F01CF010E940C0CF6
:1012F000CE010C960E940C0CD987C887DB8BCA8B59
:1013000082E090E08E1991099D878C879E8980915B
:10131000B801891710F49093B80189E0989FC00133
:10132000112481549E4FB8010E94100C81E0DF917E
:10133000CF911F910F91FF90EF90DF90CF90BF90D2
:10134000AF900895FC010FB6F8940F92208131817F
:101350006095709562237323718360830F900FBE35
:10136000C9010895FC01808191810895BA010E940C
:10137000A2090895CF93DF93EC010E94181206C0D2
:101380008F81988560E072E00E9475138A818823BE
:10139000B9F7CE010E94330B0E942B15DF91CF913C
:1013A0000895CF92DF92EF92FF920F931F93CF9306
:1013B000DF938B01EC0185E0E82EF12CEC0EFD1E95
:1013C0000E941812EF81F88588819981802B912BDA
:1013D0009983888300E010E024C0D280C38080819C
:1013E0009181BC016070AC0150702881398192FDFF
:1013F00005C024233523232B31F40FC024233523A8
:101400002417350751F470FF02C0042B152B688197
:1014100079817260CF010E9475138D2D9C2D9C01E6
:10142000F901EE15FF05C9F600951095888199819F
:1014300080239123998388830E942B158881998129
:10144000DF91CF911F910F91FF90EF90DF90CF90A0
:101450000895BA010E94D1090895AF92BF92CF9228
:10146000DF92EF92FF920F931F93CF93DF937B0155
:10147000A42EB22E68018C010E941812F80120815E
:101480003181C70182239323BB2021F4892B09F0EA
:101490005AC004C08E159F0509F455C0C114D1046B
:1014A00059F4E9011BC0C7018095909582239323CD
:1014B000F801918380834AC0AA2019F060E071E0AE
:1014C00002C060E070E0B11074606E297F29C8012D
:1014D0000296A6010E94EA14C0E0D0E00E942B15FB
:1014E000CD2829F1882311F40E94690D0E94C312AE
:1014F00091FD1BC00FB6F8940F92F8018081918185
:10150000970128233923BB2019F4232B19F50BC08D
:101510002E153F0541F41EC0E094F094E822F92214
:10152000F801F182E0820F900FBEEC01D070CE0185
:10153000DF91CF911F910F91FF90EF90DF90CF90AF
:10154000BF90AF900895AA2009F0ADCFE901CC2457
:10155000DD24C4CFAA2001F7E6CF8F929F92AF92ED
:10156000BF92CF92DF92EF92FF920F931F93CF9390
:10157000DF93F82EE92E8B015A014901C82ED92E8E
:101580000E941812F601C081D1818F2D9E2DB801C5
:101590000E94D109C02BD12BC5018C239D238A1514
:1015A0009B0569F4950120953095F6018081918124
:1015B00082239323918380838824992410C08114EB
:1015C000910451F0B5017560C6010296A4010E9414
:1015D000EA14C0E0D0E003C0F601C081D1810E94CE
:1015E0002B158928F9F0882311F40E94690D0E94B7
:1015F000C3129C0191FD14C00FB6F8940F92F6012E
:1016000020813181C501822393238A159B0531F402
:10161000A094B094A222B322B182A0820F900FBEF8
:10162000E901D070CE01DF91CF911F910F91FF9012
:10163000EF90DF90CF90BF90AF909F908F900895E4
:10164000CF93DF938BE090E00E94430BEC01009777
:1016500031F0FC0111921192CF010E94FC0BCE01DE
:10166000DF91CF91089508951092F1011092F00149
:10167000089523E135E08091F0019091F101281B5C
:10168000390BC9010895CF93DF93EC010E94181222
:101690008091F2019091F301892B31F485EF91E073
:1016A0009093F3018093F2012091F0013091F101C8
:1016B000CE01820F931F45E08331940770F4281701
:1016C000390758F4C091F201D091F301C20FD31F32
:1016D0009093F1018093F00102C0C0E0D0E00E943D
:1016E0002B15CE01DF91CF9108959F92AF92BF92BB
:1016F000CF92DF92EF92FF920F931F93DF93CF93DE
:1017000000D000D0CDB7DEB78C01EE24FF249BE7DC
:10171000A92EB12CC12CD12C9924939403C081E023
:10172000E82EF12CA982BA82CB82DC8289819A814F
:10173000AB81BC81895B9B46AC4FBF4F89839A8349
:10174000AB83BC8369817A818B819C812DEF3FEFD4
:101750004FEF5FEF0E94C21C69837A838B839C8367
:1017600069817A818B819C8127E030E040E050E004
:101770000E94031DC901DA0189839A83AB83BC836C
:1017800089819A81AB81BC818B519747AE4FBF4F06
:1017900031F6E114F10409F0C2CF0FB6F8940F92BC
:1017A000F80190820F900FBEBDCF80910807109274
:1017B0000807811181E00895AF92BF92CF92DF9226
:1017C000EF92FF920F93082F85E79BE060E770E0B0
:1017D00045E550E028E037E0EE24FF24CC24DD246A
:1017E000AA24BB240E949C160F91FF90EF90DF90DB
:1017F000CF90BF90AF900895FC019C012D5F3F4FAB
:10180000328321838FEF9FEF9483838336832583F5
:101810003087278310820895FC0111861086089571
:10182000AC01FC01A181B281FB01B383A2831496B8
:101830008D919C911597958384831496ED91FC91DD
:1018400015977383628315967C936E931497FB01AF
:1018500051874087FA0180818F5F80830895CF93FD
:10186000DF939C01EB01488159818FEF4F3F58076F
:1018700021F4F901A781B0850DC0D9011396129604
:10188000ED91FC911397808191814817590710F0D1
:10189000DF01F5CF1296ED91FC911397FB83EA835C
:1018A000D583C483BD83AC831396DC93CE93129708
:1018B00039872887F90180818F5F8083DF91CF91FD
:1018C0000895CF93DF93DC011896CD91DC911997A1
:1018D00012964D915C91139714968D919C9115974A
:1018E000FA019583848314962D913C911597F90103
:1018F0005383428389819A818A179B0711F43A8323
:10190000298319961C921E9218978881815088838A
:10191000DF91CF910895FC0191E1908322E222931F
:1019200083E3829362937293129280E8829312927D
:1019300082E0829383E0829384E0829385E08293C5
:1019400086E0829387E0829388E0829389E08293A5
:1019500080E18293929382E1829383E1829384E196
:10196000829385E1829386E1829387E1829388E185
:10197000829389E1829380E2829381E2829322932F
:1019800083E282934293529386E2829387E2829328
:1019900088E2829389E2829380E3829381E3829357
:1019A0003197CF0108951BBC8CE78ABD8BE08EBDBB
:1019B00089B7806189BFA0910907B0910A07CD91CD
:1019C000CDBFDD91DEBFFF91EF91DF91CF91BF9150
:1019D000AF919F918F917F916F915F914F913F91C7
:1019E0002F911F910F91FF90EF90DF90CF90BF90BC
:1019F000AF909F908F907F906F905F904F903F90AF
:101A00002F901F900F900FBE0F90089581E00895C2
:101A100008950F920FB6F8940F921F9211242F92EF
:101A20003F924F925F926F927F928F929F92AF926E
:101A3000BF92CF92DF92EF92FF920F931F932F935B
:101A40003F934F935F936F937F938F939F93AF9346
:101A5000BF93CF93DF93EF93FF93A0910907B091CA
:101A60000A070DB60D920EB60D920E94E913882357
:101A700011F00E943212A0910907B0910A07CD918E
:101A8000CDBFDD91DEBFFF91EF91DF91CF91BF918F
:101A9000AF919F918F917F916F915F914F913F9106
:101AA0002F911F910F91FF90EF90DF90CF90BF90FB
:101AB000AF909F908F907F906F905F904F903F90EE
:101AC0002F901F900F900FBE0F9008950E94090D48
:101AD00018950F920FB6F8940F921F9211242F921F
:101AE0003F924F925F926F927F928F929F92AF92AE
:101AF000BF92CF92DF92EF92FF920F931F932F939B
:101B00003F934F935F936F937F938F939F93AF9385
:101B1000BF93CF93DF93EF93FF93A0910907B09109
:101B20000A070DB60D920EB60D920E943212A091C8
:101B30000907B0910A07CD91CDBFDD91DEBFFF91BE
:101B4000EF91DF91CF91BF91AF919F918F917F9155
:101B50006F915F914F913F912F911F910F91FF9046
:101B6000EF90DF90CF90BF90AF909F908F907F903D
:101B70006F905F904F903F902F901F900F900FBEEF
:101B80000F9008950FB6F8940F92FC01828D0F907C
:101B90000FBE0895FC010FB6F8940F92928D0F902E
:101BA0000FBE838D891B0895FC01828D0895FC0171
:101BB000828D90E0882309F491E0892F0895FC013B
:101BC000928D20E0838D981709F421E0822F0895EB
:101BD000FC01562FA72F248D2223B9F086819781EF
:101BE000820F911D97838683228133818217930709
:101BF00020F08081918197838683448D66817781EF
:101C0000852F9A2F50E00E94551D08950F931F9322
:101C1000CF93DF93EC018A8D882341F00E811F81E1
:101C2000CE010E94E80D1F830E8381E0DF91CF91EA
:101C30001F910F9108950F931F93CF93DF93FB0193
:101C40008A01EC018A8D882361F18C8D2E813F8180
:101C5000280F311D3F832E838A819B8128173907E6
:101C600020F0888199819F838E838A8D81508A8F0D
:101C70004C8D6E817F81CF0150E00E94551DF8018F
:101C80008081882369F48885882351F0CE010896E5
:101C90000E94E307882321F081E0F801808301C0DE
:101CA00081E0DF91CF911F910F9108951F93CF9302
:101CB000DF93EC01142F4C8D442369F488819981C2
:101CC000892B09F044C08A819B810E94EE12982FD3
:101CD0001B821A823DC01123B1F48C819D8150E09A
:101CE0000E94551D8C8D2C813D81280F311D3D8317
:101CF0002C838A819B812817390748F18881998133
:101D00009D838C8324C08E819F8150E00E94551D4D
:101D10008C8D90E044275527481B590B8E819F815D
:101D2000840F951F9F838E832881398182179307A3
:101D300030F48A819B81840F951F9F838E8312309C
:101D400031F48A8D882319F08A8D81508A8F90E032
:101D50008A8D8F5F8A8F892FDF91CF911F91089590
:101D60001F93CF93DF93142FEC019A8D8B8D9817CF
:101D700088F4CE0140E00E94560E112359F489895F
:101D8000882341F0CE0141960E94E307482F81113C
:101D900041E0142F812FDF91CF911F910895CF93B0
:101DA000DF93FB01EC01F8948A8D882371F44115CF
:101DB000510541F06196CA01BE010E94EB0878947A
:101DC0008CEF2FC0789480E02CC07894F8948A8DA2
:101DD000882331F18C8D2E813F81280F311D3F8367
:101DE0002E838A819B812817390720F08881998169
:101DF0009F838E838A8D81508A8F4C8D6E817F81E7
:101E0000CF0150E00E94551D8885882341F0CE0106
:101E100008960E94E307882311F08BEF01C081E050
:101E20007894DF91CF910895CF93DF93EC01F894EC
:101E30000FB6F8940F928A8D9B8D0F900FBE891765
:101E400071F44115510541F02896CA01BE010E9466
:101E5000EB0878948CEF1BC0789480E018C07894DD
:101E6000F8948A8D891710F080E010C0CE0140E010
:101E70000E94560E8989882341F0CE0141960E9426
:101E8000E307882311F08BEF01C081E07894DF91A4
:101E9000CF910895CF93DF93EC01888199810097CA
:101EA00011F00E94330BCE010E94330BDF91CF91D2
:101EB00008950F931F93CF93DF938A01EC018A8DCE
:101EC0008823E9F0CE010E94E80D8A8D81508A8F27
:101ED0008D8D8F3F81F48885882381F0CE0108960F
:101EE0000E94A913882351F00115110539F081E0F2
:101EF000F801808304C08D8D8F5F8D8F81E0DF912D
:101F0000CF911F910F9108950F931F93CF93DF935C
:101F10008A01EC019A8D8B8D981720F0223011F0F8
:101F200080E023C0CE01422F0E94560E882331F05C
:101F30000115110519F081E0F80180838E8D8F3F26
:101F400081F48989882381F0CE0141960E94A913EA
:101F5000882351F00115110539F081E0F8018083E3
:101F600004C08E8D8F5F8E8F81E0DF91CF911F91A6
:101F70000F9108950F931F93CF93DF93EC010FB64A
:101F8000F8940F928C010F5E1F4F0DC08989882332
:101F900069F0C8010E94A913882311F00E94B912A8
:101FA0008E8D81508E8F8E8D181684F38FEF8E8FCD
:101FB0000F900FBE0FB6F8940F928E01085F1F4F5F
:101FC0000DC08885882369F0C8010E94A913882361
:101FD00011F00E94B9128D8D81508D8F8D8D181644
:101FE00084F38FEF8D8F0F900FBEDF91CF911F91F4
:101FF0000F9108957F928F929F92AF92BF92CF924E
:10200000DF92EF92FF920F931F93DF93CF9300D055
:1020100000D00F92CDB7DEB75B015D834C83722E8B
:102020008C0191E1C92ED12CC00ED11E20E07E0181
:102030000894E11CF11C84E0882E912C8C0E9D1ECE
:1020400001C021E00FB6F8940F92F801828D882329
:1020500089F1E680F780C801B5010E94E80D77207C
:10206000C1F4F801828D8150828F80819181892B0A
:1020700029F40E94DB12F80193838283F8018085A2
:102080008823A1F0C80108960E94A913813071F439
:102090000BC0F801F782E6828189882339F0C601F6
:1020A0000E94A913882311F00E94690D0F900FBEA2
:1020B00081E059C08C819D81892B19F40F900FBE4E
:1020C00051C0222319F4C7010E947B120F900FBE4A
:1020D0000E9418120FB6F8940F92F801858D8F3F69
:1020E00009F4158EF801868D8F3F09F4168E0F9036
:1020F0000FBEC701B4010E948612882371F50FB686
:10210000F8940F92F801828D0F900FBE8823F9F496
:10211000F80180819181892B51F40FB6F8940F92C8
:10212000F801828193810E9423130F900FBE6C816E
:102130007D81C6010E940E15C8010E94BA0F0E943F
:102140002B15882309F07DCF0E94690D7ACFC80135
:102150000E94BA0F0E942B1574CFC8010E94BA0FBB
:102160000E942B1580E00F900F900F900F900F9012
:10217000CF91DF911F910F91FF90EF90DF90CF9063
:10218000BF90AF909F908F907F9008956F927F92B5
:102190009F92AF92BF92CF92DF92EF92FF920F93F6
:1021A0001F93DF93CF9300D000D00F92CDB7DEB74F
:1021B0006B015D834C83922E8C0148E0E42EF12C60
:1021C000E80EF91E20E05E010894A11CB11C34E069
:1021D000632E712C6C0E7D1E01C021E00FB6F894A9
:1021E0000F92F801928D838D981718F0F2E09F16E8
:1021F000C9F4C801B601492D0E94560E982FF80166
:102200008189882339F0C80141960E94A913813041
:1022100029F402C0992311F00E94690D0F900FBE9E
:1022200081E04CC08C819D81892B19F40F900FBEE9
:1022300044C0222319F4C5010E947B120F900FBEE7
:102240000E9418120FB6F8940F92F801858D8F3FF7
:1022500009F4158EF801868D8F3F09F4168E0F90C4
:102260000FBEC501B3010E948612882309F50FB67F
:10227000F8940F92F801928D0F900FBEF801838DA4
:10228000981781F46C817D81C7010E940E15C801E9
:102290000E94BA0F0E942B15882309F09ECF0E943E
:1022A000690D9BCFC8010E94BA0F0E942B1595CFD4
:1022B000C8010E94BA0F0E942B1580E00F900F906A
:1022C0000F900F900F90CF91DF911F910F91FF9082
:1022D000EF90DF90CF90BF90AF909F907F906F90E6
:1022E0000895CF93DF938FE190E00E94430BEC01C0
:1022F0000097F9F01B821A82198218821D821C82B3
:102300001F821E821A8E81E08B8F1C8E8FEF8D8F25
:102310008E8FCE0108960E94FC0BCE0141960E9442
:10232000FC0BCE0160E070E040E050E020E00E9455
:10233000C610CE01DF91CF910895CF93DF93EC01CA
:102340000FB6F8940F92EC8D2B8DE29FC0011124F3
:1023500048815981840F951F9B838A831A8E5D83E0
:102360004C8330E021503040F0E02E9FC0012F9F81
:10237000900D3E9F900D1124480F591F5F834E838F
:102380008FEF8D8F8E8F662361F48885882389F087
:10239000CE0108960E94A913813059F40E94690D5C
:1023A00008C0CE0108960E94FC0BCE0141960E9407
:1023B000FC0B0F900FBE81E0DF91CF9108950F933A
:1023C0001F93CF93DF93182F062F8823E1F08FE11F
:1023D00090E00E94430BEC010097A9F0019FC0011F
:1023E000112401960E94430B99838883009741F042
:1023F0001B8F0C8FCE0161E00E949D119E0105C0D4
:10240000CE010E94330B20E030E0C901DF91CF9173
:102410001F910F9108951F93162F60E042E00E94D4
:10242000DF11FC01009709F0128FCF011F91089571
:10243000809110078F5F8093100708950FB6F8946E
:102440000F9220910D0730910E070F900FBEC9011A
:10245000089520910D0730910E07C90108958091CC
:102460001207089580911007882321F081E080935E
:102470000C07089510920C0705C080910B0781503E
:1024800080930B0780910B0790E0FC0123E0EE0F97
:10249000FF1F2A95E1F7E80FF91FEA5EF84F8081E8
:1024A000882359F390910B0789E0989FD00111245C
:1024B000AA5EB84F1196ED91FC9112970280F381BC
:1024C000E02D1296FC93EE931197CD010396E81739
:1024D000F90731F48281938112969C938E93119720
:1024E0001196ED91FC9112978681978190930A073E
:1024F000809309070895FC0180910F0780838091E4
:102500000D0790910E07928381830895FC01DB01F2
:102510000FB6F8940F9240910D0750910E079091CD
:102520000F078081981729F08181928148175907F8
:10253000E0F4218132816D917C911197CA01821B57
:10254000930B8617970788F4241B350B260F371F2C
:102550002D933C9380910F07808380910D0790917C
:102560000E079283818380E001C081E00F900FBE4F
:10257000089581E080930C07089520910907309118
:102580000A07C9010895E0910907F0910A078485B7
:102590009585A0910907B0910A07E0910907F0918C
:1025A0000A07468924E030E0241B31091D963C933C
:1025B0002E931C9708958091090790910A07892B03
:1025C00039F0E0910907F0910A0786A58F5F86A789
:1025D0002091090730910A07C90108950F931F93AD
:1025E000CF93DF93EC01009741F12EA521502EA748
:1025F0009E898DA5981709F12223F9F48E010E5FAB
:102600001F4FC8010E94610C2DA52E8B84E090E025
:10261000821B91099D878C8780910B07821710F48C
:1026200020930B0789E0289FC00111248A5E984FF0
:10263000B8010E94100C81E001C080E0DF91CF91D1
:102640001F910F9108950F931F93CF93DF93EC0188
:10265000009709F445C0E0910907F0910A079E89A7
:1026600086899817E8F58C859D8597FD0BC0E091CC
:102670000907F0910A07268984E090E0821B9109FE
:102680009D878C878E8929E0829FC00111248A5EF4
:10269000984F2A853B8528173907E1F48E010E5F94
:1026A0001F4FC8010E94610CE0910907F0910A07D1
:1026B00096899E8B80910B07891710F490930B07D6
:1026C00089E0989FC00111248A5E984FB8010E944A
:1026D000100C06C0E0910907F0910A0786898E8BDD
:1026E000DF91CF911F910F9108950F931F93CF9377
:1026F000DF93FC01706871836083C681D7810E947B
:10270000610C8E010E5F1F4FC8010E94610C9E89F3
:1027100080910B07891710F490930B0789E0989F1D
:10272000C00111248A5E984FB8010E94100CE091FC
:102730000907F0910A079E898689891710F080E0C1
:1027400003C081E080930C07DF91CF911F910F911F
:1027500008950F931F93CF93DF93DC011596ED91AE
:10276000FC911697C681D7818E01045F1F4FC80167
:102770000E94610C809110078823A1F48E010E5FE6
:102780001F4FC8010E94610C9E8980910B07891719
:1027900010F490930B0789E0989FC00111248A5E82
:1027A000984F02C080E597E0B8010E94100CE091BC
:1027B0000907F0910A079E898689891710F080E041
:1027C00003C081E080930C07DF91CF911F910F919F
:1027D0000895CF92DF92EF92FF920F931F93CF93C2
:1027E000DF9380911007882309F0A7C080910D071F
:1027F00090910E07019690930E0780930D07E0903D
:102800000D07F0900E07E114F10479F520914C07C3
:1028100030914D0780914E0790914F0790934D074F
:1028200080934C0730934F0720934E0780910F07FA
:102830008F5F80930F07E0914C07F0914D078081E7
:10284000882319F48FEF9FEF0CC0E0914C07F091B3
:102850004D070580F681E02D0680F781E02D82810D
:1028600093819093B1018093B0018091B0019091D8
:10287000B101E816F90608F449C0DD2449E0C42E88
:10288000E0914C07F0914D078081882319F48FEF78
:102890009FEF0EC0E0914C07F0914D070580F68147
:1028A000E02DC681D7818A819B81E816F90628F43C
:1028B0009093B1018093B0012AC08E010E5F1F4F2B
:1028C000C8010E94610C8C899D89892B21F0CE0161
:1028D0000C960E94610C9E8980910B07891710F459
:1028E00090930B079C9DC00111248A5E984FB801FC
:1028F0000E94100CE0910907F0910A079E898689D1
:10290000981708F4BDCFDD24D394BACFDD24E0912D
:102910000907F0910A07868990E0FC0133E0EE0F89
:10292000FF1F3A95E1F7E80FF91FEA5EF84F808143
:10293000823048F0DD24D39406C0809111078F5F68
:1029400080931107DD2480910C07882311F0DD248A
:10295000D3948D2DDF91CF911F910F91FF90EF9028
:10296000DF90CF900895CF93DF93EC01E0910907BA
:10297000F0910A079383828380910D0790910E074F
:10298000C817D90768F480914E0790914F0760915E
:10299000090770910A076E5F7F4F0E942F0C17C0C6
:1029A00080914C0790914D076091090770910A073B
:1029B0006E5F7F4F0E942F0C8091B0019091B1010A
:1029C000C817D90720F4D093B101C093B001DF91AB
:1029D000CF9108950F931F938A01E0910907F09119
:1029E0000A077068758764876091090770910A0704
:1029F000645F7F4F0E94100C8091090790910A0735
:102A000002960E94610C80910D0790910E07800F35
:102A1000911F0E94B3141F910F9108950F931F935C
:102A20008B016091090770910A07645F7F4F0E94D4
:102A30002F0C8091090790910A0702960E94610C61
:102A400080910D0790910E07800F911F0E94B31483
:102A50001F910F910895EF92FF920F931F93CF93C1
:102A6000DF930FB6F8940F928091100781508093F6
:102A7000100780911007882309F055C08091120734
:102A8000882359F550C0E0915507F0915607C6814B
:102A9000D781CE010C960E94610C8E010E5F1F4FF4
:102AA000C8010E94610C9E8980910B07891710F460
:102AB00090930B079E9DC00111248A5E984FB80128
:102AC0000E94100CE0910907F0910A079E898689FF
:102AD000981738F0F0920C0704C059E0E52EFF2457
:102AE000F39480915007882371F680911107882311
:102AF00069F411C00E94E913882311F010930C07A8
:102B00008091110781508093110701C011E08091DD
:102B10001107882379F780910C07813021F40E94F6
:102B2000690D81E001C080E00F900FBEDF91CF9171
:102B30001F910F91FF90EF9008950F931F93CF93E4
:102B4000DF93EC010097C9F0809110078F5F8093AD
:102B5000100700910D0710910E07809109079091C1
:102B60000A0702960E94610CCE01800F911F0E94FD
:102B7000B3140E942B15882311F40E94690DDF9174
:102B8000CF911F910F910895CF93DF93FC01EB013B
:102B9000809110078F5F8093100720910D0730916F
:102BA0000E0780819181C80FD91F2817390728F493
:102BB000C817D90728F080E008C0C817D90720F047
:102BC00080E02C173D0708F481E0D183C08388237F
:102BD00051F08091090790910A0702960E94610CBA
:102BE000CE010E94B3140E942B15882311F40E9479
:102BF000690DDF91CF9108950F931F93CF93DF93CA
:102C00000FB6F8940F92009729F4C0910907D0915C
:102C10000A0701C0EC018E010E5F1F4FC8010E9420
:102C2000610C8C899D89892B21F0CE010C960E9424
:102C3000610C89E597E0B8010E94100C809114079F
:102C40008F5F80931407809115078F5F809315071E
:102C50000F900FBE80911307882349F180910907D7
:102C600090910A07C817D90719F40E94690D1FC06F
:102C70000FB6F8940F92E0914C07F0914D078081C8
:102C8000882319F48FEF9FEF0CC0E0914C07F0916F
:102C90004D070580F681E02D0680F781E02D8281C9
:102CA00093819093B1018093B0010F900FBEDF919B
:102CB000CF911F910F910895F894109213070E94DD
:102CC000080D08950F931F932CC0809110078F5FFC
:102CD00080931007109159070E942B15112309F1B9
:102CE0000FB6F8940F92E0915E07F0915F070681AE
:102CF0001781C80102960E94610C809112078150D1
:102D000080931207809114078150809314070F90CD
:102D10000FBEF8018789908D0E94330BC8010E9475
:102D2000330B80911407882381F680911607823037
:102D3000C0F30E94690DF5CF2F923F924F925F92A0
:102D40007F928F929F92AF92BF92CF92DF92EF923B
:102D5000FF920F931F93CF93DF931C01962E872E24
:102D60005A012901702E8FE290E00E94430BEC0182
:102D7000009781F0C114D10421F4C5010E94430BD6
:102D80006C01D88ECF8AC114D10409F0CBC0CE011A
:102D90000E94330B8FEFB4C0808159968C93599762
:102DA0008081882329F09F5F319611969431A1F795
:102DB0001CA6072D83E0871508F403E00E8B0DA7F2
:102DC0001EA672E0872E912C8C0E9D1EC4010E94BF
:102DD0000C0CCE010C960E940C0CD987C88784E09D
:102DE00090E0801B91099D878C87DB8BCA8B0894B0
:102DF000A108B108C6018A0D9B1DB101A2010E9464
:102E00008B0C99838883E114F10419F0F701D183C5
:102E1000C0830FB6F8940F92809112078F5F809352
:102E200012078091090790910A07892BA9F5D09381
:102E30000A07C0930907809112078130E1F586E106
:102E400097E00E94FC0B8FE197E00E94FC0B88E268
:102E500097E00E94FC0B81E397E00E94FC0B6AE381
:102E6000E62E67E0F62EC7010E94FC0B03E417E094
:102E7000C8010E94FC0B80E597E00E94FC0B89E5ED
:102E800097E00E94FC0BF0924D07E0924C071093E4
:102E90004F0700934E070FC080911307882359F402
:102EA000E0910907F0910A078689781620F0D093FF
:102EB0000A07C0930907809115078F5F8093150754
:102EC0009E8980910B07891710F490930B0789E076
:102ED000989FC00111248A5E984FB4010E94100C83
:102EE0000F900FBE80911307882349F0E0910907E6
:102EF000F0910A078689871510F40E94690D81E018
:102F0000DF91CF911F910F91FF90EF90DF90CF90C5
:102F1000BF90AF909F908F907F905F904F903F9029
:102F20002F900895892D982D9C01F901DE0190E0E4
:102F300033CFAF92BF92CF92DF92EF92FF920F9377
:102F400082E696E168E770E045E550E020E030E099
:102F500000E0EE24FF24CC24DD24AA24BB240E941C
:102F60009C16813049F4F8948093130710920E0751
:102F700010920D070E94D30C0F91FF90EF90DF90FD
:102F8000CF90BF90AF90089581E487B986E886B965
:102F9000089597B1907E97B997B18770892B87B9BB
:102FA000369A3699FECF24B135B1C90108958434DB
:102FB00009F44AC0853440F4823469F1833408F05E
:102FC0005CC0813469F40EC0823629F1833618F46E
:102FD000813631F407C0833609F44FC08436A1F13D
:102FE0008FEF0895442359F02AB381E090E002C0A6
:102FF000880F991F6A95E2F7282B2ABB4AC02AB38B
:1030000081E090E002C0880F991F6A95E2F78095F1
:1030100082238ABB3EC0442359F027B381E090E06D
:1030200002C0880F991F6A95E2F7282B27BB31C091
:1030300027B381E090E002C0880F991F6A95E2F7FC
:103040008095822387BB25C0442359F021B381E0BA
:1030500090E002C0880F991F6A95E2F7282B21BBE8
:1030600018C021B381E090E002C0880F991F6A95D3
:10307000E2F78095822381BB0CC0442361F024B326
:1030800081E090E002C0880F991F6A95E2F7282B33
:1030900024BB81E0089524B381E090E002C0880F52
:1030A000991F6A95E2F78095822384BB81E0089599
:1030B000843409F44AC0853440F4823469F183349D
:1030C00008F05CC0813469F40EC0823629F1833681
:1030D00018F4813631F407C0833609F44FC08436C2
:1030E000A1F18FEF0895442359F02BB381E090E0D4
:1030F00002C0880F991F6A95E2F7282B2BBB4AC0A4
:103100002BB381E090E002C0880F991F6A95E2F727
:10311000809582238BBB3EC0442359F028B381E0C5
:1031200090E002C0880F991F6A95E2F7282B28BB10
:1031300031C028B381E090E002C0880F991F6A95E2
:10314000E2F78095822388BB25C0442359F022B33F
:1031500081E090E002C0880F991F6A95E2F7282B62
:1031600022BB18C022B381E090E002C0880F991FF3
:103170006A95E2F78095822382BB0CC0442361F0FC
:1031800025B381E090E002C0880F991F6A95E2F7AD
:10319000282B25BB81E0089525B381E090E002C093
:1031A000880F991F6A95E2F78095822385BB81E09D
:1031B00008958434D1F0853438F48234A1F0833416
:1031C000B8F4813461F40DC0823669F0833618F4A6
:1031D000813629F406C0833659F0843631F08FEFFA
:1031E00008956ABB03C067BB01C064BB81E008955A
:1031F00061BB81E008958434D1F0853438F48234A1
:10320000A1F08334B8F4813461F40DC0823669F0E2
:10321000833618F4813629F406C0833659F0843693
:1032200031F08FEF08956BBB03C068BB01C062BB78
:1032300081E0089565BB81E008958434D1F0853440
:1032400038F48234A1F08334E8F4813461F40DC0A1
:10325000823669F0833618F4813629F406C0833645
:1032600089F0843631F08FEF089589B303C086B3B7
:1032700001C080B390E002C0959587956A95E2F70A
:103280008170089583B390E002C0959587956A9503
:10329000E2F7817008959C0140E050E084E0220F45
:1032A000331F441F551F8A95D1F760E072E18AE70A
:1032B00090E00E94E11C2150304029B930BD86E8E1
:1032C00080BD88E18AB908951F920F920FB60F92C0
:1032D00011242F933F934F935F936F937F938F931B
:1032E0009F93AF93BF93EF93FF9380916407909167
:1032F000650760E070E040E050E020E00E94840F4D
:10330000FF91EF91BF91AF919F918F917F916F91BD
:103310005F914F913F912F910F900FBE0F901F9093
:1033200018951F920F920FB60F9211242F933F936F
:103330004F935F936F937F938F939F93AF93BF93BD
:10334000EF93FF93DF93CF930F92CDB7DEB78CB19E
:10335000898380916C0790916D07BE016F5F7F4FED
:1033600040E050E020E00E94840F8981882359F4D6
:10337000809162079091630760E070E040E050E068
:1033800020E00E94840F0F90CF91DF91FF91EF9189
:10339000BF91AF919F918F917F916F915F914F916D
:1033A0003F912F910F900FBE0F901F90189580E0C6
:1033B00090E008951F9310E008C0C901BF0140E0EC
:1033C00050E020E00E94C6101F5FE12FF0E0E358BC
:1033D000FF4F808120916E0730916F07882369F736
:1033E000C901BF0140E050E020E00E94C61080917A
:1033F00064079091650760E070E040E050E020E0F5
:103400000E94C6101F91089580E895E20E944B1912
:1034100008954AE050E00E945E1D08951F93182F02
:10342000DB9A81E090E00E949D15969A81E090E001
:103430000E949D1588B3807F88BB812F82958F70F5
:1034400088BB969881E090E00E949D15DB9A969A41
:1034500081E090E00E949D1588B3807F88BB1F703B
:1034600018BB969881E090E00E949D151F910895E9
:10347000CF93DF93EC0102C00E940E1A899188233A
:10348000D9F7DF91CF9108951F93182FDB9881E032
:1034900090E00E949D15969A81E090E00E949D1513
:1034A00088B3807F88BB812F82958F7088BB969868
:1034B00081E090E00E949D15DB98969A81E090E073
:1034C0000E949D1588B3807F88BB88B31F70812BB5
:1034D00088BB969881E090E00E949D151F91089509
:1034E0000F931F93CF93DF938B01883090F4880F55
:1034F000880F880F805C0E94441AC0E0D0E0F80179
:10350000EC0FFD1F80810E940E1A2196C830D10554
:10351000B1F7DF91CF911F910F910895813041F064
:10352000813058F0823031F0833031F060E005C0F6
:10353000605C03C0605F01C0605B862F80680E9492
:10354000441A08950F931F938A010E948E1AC8018E
:103550000E94381A1F910F91089581E00E94441A29
:103560000895D39A8E9A87B38F6087BB82E00E94BA
:10357000441A88E20E94441A81E090E00E949D155E
:1035800081E00E94441A8CE00E94441A089586E06B
:103590000E94C91786E00E94C91786E00E94C917D9
:1035A000AA2797FDA095BA2FBC01CD010E94F50373
:1035B00020E030E048E454E40E94190320E030E0C9
:1035C00048EC52E40E941F020E944900CB0108957A
:1035D00081E666E040E00E94D71781E0089585E02B
:1035E0000E94C91785E00E94C91785E00E94C9178B
:1035F000A0E0B0E0BC01CD010E94A70426EF38E2B4
:103600004CE950E40E941F0220E030E040E251E427
:103610000E9419030E944900CB01089581E665E0EC
:1036200040E00E94D71781E008951F9311E00E94A7
:10363000EF1A90937207809371070E94C71A9093B4
:10364000680780936707809175079091760760E01F
:1036500070E048EE53E020E00E94FA0F20917107DD
:10366000309172078091730790917407281739077A
:1036700059F420916707309168078091690790910C
:103680006A072817390719F010936B0702C01092C8
:103690006B07809175079091760760E070E040E0DD
:1036A00050E020E00E94C61088EE93E00E949D1535
:1036B000BECF0F931F93DF93CF9300D000D0CDB731
:1036C000DEB7209171073091720780917307909156
:1036D000740728173907F9F030937407209373079C
:1036E00080E066E00E948E1A8BE890E00E94381A13
:1036F00080E067E00E948E1A8091710790917207B6
:103700008E010F5F1F4FB8014AE050E00E945E1D1E
:10371000C8010E94381A209167073091680780918C
:10372000690790916A0728173907F9F030936A07FB
:103730002093690781E066E00E948E1A8BE890E092
:103740000E94381A81E067E00E948E1A8091670714
:10375000909168078E010F5F1F4FB8014AE050E05B
:103760000E945E1DC8010E94381A0F900F900F90A2
:103770000F90CF91DF911F910F91089580E060E04D
:103780000E948E1A8FE890E00E94381A81E060E073
:103790000E948E1A8CE990E00E94381A0E94591BF0
:1037A00088EC90E00E949D15F9CFAF92BF92CF9226
:1037B000DF92EF92FF920F938EEB9BE160E070E05F
:1037C00048EC50E020E030E001E0EE24FF24CC247F
:1037D000DD24AA24BB240E949C1685E19BE160E0C5
:1037E00070E048EC50E020E030E002E00E949C16DF
:1037F0008BE49CE160E070E044E650E020E030E0E3
:1038000003E00E949C1687E29CE160E070E044E6E1
:1038100050E020E030E006E00E949C1680916207B4
:103820009091630760E070E040E050E020E00E948B
:10383000FA0F882339F080916C0790916D070E94F0
:10384000C20DF7CF82E090E00E949D15E7CFDF9395
:10385000CF930F92CDB7DEB7809164079091650743
:1038600060E070E040E050E020E00E94FA0F882322
:1038700071F080916E0790916F07BE016F5F7F4F6F
:1038800040E050E020E00E94FA0F89818CB90F904F
:10389000CF91DF91089582E090E00E949D15FBCFCB
:1038A0000E94B11A0E94AD1A0E94041A0E94E81ADE
:1038B0000E940E1B81E08093700710927207109295
:1038C0007107109274071092730782E08093660765
:1038D000109268071092670710926A0710926907A2
:1038E0000895AF92BF92CF92DF92EF92FF920F9323
:1038F00081E00E947111909376078093750781E0B3
:1039000060E043E00E94DF119093630780936207B9
:1039100081E060E043E00E94DF11909365078093AF
:10392000640784E161E040E00E94DF1190936D073D
:1039300080936C0784E161E040E00E94DF11909386
:103940006F0780936E070E94501C85ED9BE160E03D
:1039500070E040E951E020E030E005E0EE24FF2493
:10396000CC24DD24AA24BB240E949C160E94991713
:1039700080E090E00F91FF90EF90DF90CF90BF90AC
:10398000AF900895629FD001739FF001829FE00D78
:10399000F11D649FE00DF11D929FF00D839FF00DCE
:1039A000749FF00D659FF00D9927729FB00DE11D7A
:1039B000F91F639FB00DE11DF91FBD01CF01112457
:1039C0000895A1E21A2EAA1BBB1BFD010DC0AA1F60
:1039D000BB1FEE1FFF1FA217B307E407F50720F078
:1039E000A21BB30BE40BF50B661F771F881F991FF3
:1039F0001A9469F760957095809590959B01AC013C
:103A0000BD01CF01089597FB092E05260ED057FD65
:103A100004D0D7DF0AD0001C38F45095409530957B
:103A200021953F4F4F4F5F4F0895F6F79095809542
:103A3000709561957F4F8F4F9F4F08952F923F92C2
:103A40004F925F926F927F928F929F92AF92BF92AE
:103A5000CF92DF92EF92FF920F931F93CF93DF935A
:103A6000CDB7DEB7CA1BDB0B0FB6F894DEBF0FBEB7
:103A7000CDBF09942A88398848885F846E847D8404
:103A80008C849B84AA84B984C884DF80EE80FD8006
:103A90000C811B81AA81B981CE0FD11D0FB6F8947C
:103AA000DEBF0FBECDBFED010895FB01DC0102C0FA
:103AB00001900D9241505040D8F70895FB019F01AD
:103AC000E8944230C4F04532B4F44A3029F497FB0C
:103AD0001EF4909581959F4F642F77270E948F1D2C
:103AE000805D8A330CF0895D8193CB010097A1F74B
:103AF00016F45DE251931082C9010C947F1DDC0124
:103B0000FC01672F71917723E1F7329704C07C9114
:103B10006D9370836291AE17BF07C8F30895AA1B17
:103B2000BB1B51E107C0AA1FBB1FA617B70710F0A8
:103B3000A61BB70B881F991F5A95A9F780959095DA
:0A3B4000BC01CD010895F894FFCFF9
:103B4A0051436F6E734E42005150726F644E420081
:103B5A00496E744D6174680049444C450077696642
:103B6A00692073656E64203A2030002020200054BA
:103B7A00656D70203A202020204320004C69676838
:103B8A00743A2020202025000000000000000000D8
:103B9A0000010202030303030404040404040404EA
:103BAA0005050505050505050505050505050505BB
:103BBA00060606060606060606060606060606069B
:103BCA00060606060606060606060606060606068B
:103BDA00070707070707070707070707070707076B
:103BEA00070707070707070707070707070707075B
:103BFA00070707070707070707070707070707074B
:103C0A00070707070707070707070707070707073A
:103C1A00080808080808080808080808080808081A
:103C2A00080808080808080808080808080808080A
:103C3A0008080808080808080808080808080808FA
:103C4A0008080808080808080808080808080808EA
:103C5A0008080808080808080808080808080808DA
:103C6A0008080808080808080808080808080808CA
:103C7A0008080808080808080808080808080808BA
:103C8A0008080808080808080808080808080808AA
:023C9A00FFFF2A
:00000001FF
